:100000000C94C4060C94EC060C94EC060C94EC06D0
:100010000C94EC060C94EC060C94EC060C94EC0698
:100020000C94EC060C94EC060C94EC060C94EC0688
:100030000C94EC060C94EC060C94EC060C94EC0678
:100040000C9456150C94EC060C9424150C94FE1488
:100050000C94EC060C94EC060C94EC060C94EC0658
:100060000C94EC060C94EC0600407A10F35A00A0B5
:10007000724E18090010A5D4E80000E87648170071
:1000800000E40B54020000CA9A3B000000E1F505B1
:10009000000080969800000040420F000000A086FB
:1000A00001000000102700000000E803000000002D
:1000B0006400000000000A000000000001000000D1
:1000C00000002C76D888DC674F0823DFC1DFAE59EB
:1000D000E1B1B796E5E3E453C63AE651997696E87E
:1000E000E6C28426EB898C9B62ED407C6FFCEFBC02
:1000F0009C9F40F2BAA56FA5F490055A2AF75C932D
:100100006B6CF9676DC11BFCE0E40D47FEF520E662
:10011000B500D0ED902E0300943577050080841E45
:10012000080000204E0A000000C80C333333330FA0
:10013000986E12831141EF8D2114893BE65516CF3D
:10014000FEE6DB18D1844B381BF77C1D901DA4BB49
:10015000E424203284725E228100C9F124ECA1E5FE
:100160003D277F1F8207840684068407827F1882CA
:1001700007840684068407827F20278E0F900D92C5
:100180000D9001800881018E018206831084048510
:100190000E8504850E8504850E8504850E850485EF
:1001A0000E8504850E8504850E8504850E850485DF
:1001B0000E8504850E8504850E8504850E850485CF
:1001C0000E85048410840482028E028204800292CE
:1001D0000280069609940C9002811B83198519856B
:1001E000198519851985198519851985198519851F
:1001F00019851985198519851A830B8E01810B9034
:100200000D920D900F8E28278E0F900D920D90015C
:10021000800881018E01820683108404850E850486
:10022000850E8504850E8504850E8504850E85045E
:10023000850E8504850E8504850E8504850E85044E
:10024000850E8504850E8504850E8504850E85043E
:100250008410840482028E0282048002920280064C
:100260009606800194078201900281048411830420
:10027000850E8504850E8504850E8504850E85040E
:10028000850E8504850E8504850E8504850E8504FE
:10029000850E8504850E8504850E8504850E8504EE
:1002A000850E8504850E85058310830781018E01E7
:1002B000810B900D920D900F8E28278E0F900D922E
:1002C0000D9001800C8E01821B841985198519857A
:1002D000198519851985198519851985198519852E
:1002E000198519851A841C821E805D811B831985DE
:1002F000198519851985198519851985198519850E
:10030000198519851985198519851A831C817F24FA
:10031000278E0F900D920D900B81018E0B831A8505
:1003200019851985198519851985198519851985DD
:10033000198519851985198519841A82028E0A80F2
:1003400002920A9606800194078201900281048439
:10035000118304850E8504850E8504850E8504852C
:100360000E8504850E8504850E8504850E8504851D
:100370000E8504850E8504850E8504850E8504850D
:100380000E8504850E8504850E85058310830781FF
:10039000018E01810B900D920D900F8E28278E0FEC
:1003A000900D920D900B81018E0B831A8519851982
:1003B000851985198519851985198519851985194D
:1003C000851985198519841A82028E0A8002920A7B
:1003D0009609940C9002811B83198519851985193A
:1003E000851985198519851985198519851985191D
:1003F00085198519851A830B8E01810B900D920D3D
:10040000900F8E287F198008811282068310840441
:10041000850E8504850E8504850E8504850E85046C
:10042000850E8504850E8504850E8504850E85045C
:10043000850E8504850E8504850E8504850E85044C
:10044000850E85048410840482028E028204800258
:10045000920280069609940C9002811B83198519DB
:10046000851985198519851985198519851985199C
:100470008519851985198519851A831C817F24277B
:100480008E0F900D920D9001800C8E01821B8419AD
:10049000851985198519851985198519851985196C
:1004A0008519851985198519851A840A8E0282088D
:1004B000920280069609940C9002811B831985197B
:1004C000851985198519851985198519851985193C
:1004D0008519851985198519851A830B8E01810B5C
:1004E000900D920D900F8E28278E0F900D920D90EB
:1004F00001800C8E01821B84198519851985198547
:1005000019851985198519851985198519851985FB
:1005100019851A840A8E0282089202800696068045
:1005200001940782019009841A8519851985198516
:1005300019851985198519851985198519851985CB
:10054000198519851A831C81018E0F900D920D90CB
:100550000F8E287F19801D821B84198519851985A6
:10056000198519851985198519851985198519859B
:10057000198519851B831D811E805D811B8319854B
:10058000198519851985198519851985198519857B
:10059000198519851985198519851A831C817F2468
:1005A000278E0F900D920D9001800881018E01829F
:1005B0000683108404850E8504850E8504850E85CA
:1005C00004850E8504850E8504850E8504850E85BB
:1005D00004850E8504850E8504850E8504850E85AB
:1005E00004850E8504850E8504841084048214829B
:1005F0000480188024801E82158104841183048560
:100600000E8504850E8504850E8504850E8504857A
:100610000E8504850E8504850E8504850E8504856A
:100620000E8504850E8504850E8504850E8504855A
:100630000E8504850E85058310830781018E018157
:100640000B900D920D900F8E287F7F7F7B82078409
:10065000068406840782107F7F7F7F7F278E0E921D
:100660000A9609940C907F7F7F7F7F477F7F7F7FF3
:100670003F0C0C0C0C0C0C0C0C0C0C0C0C0C200C73
:100680000C202020202020202020200C0C0C0C0CE2
:100690000C0C0C0C0C0C0C0C0C0C0C0C0C0C0C0C9A
:1006A0000C0C0C0C0C0C0C0C0C0C0C0C0C0C0C0C8A
:1006B0000C0C0C0C0C0C0C0C0C0C0C0C0C0C0C0C7A
:1006C0000C0C0C0C0C0C0C0C0C0C0C0C0C0C0C0C6A
:1006D0000C6C066C066C066C066C066C066C066C84
:1006E000066C066C066C066C066C06570649066CB2
:1006F00006A0055305E8047F0404049D031003BA13
:100700000207027A0162016C066C066C066C066CCC
:10071000066C066C066C066C066C066C066C066C49
:10072000066C066C066C066C066C066C066C066C39
:10073000066C066C066C066C066C066C066C066C29
:10074000066C066C066C066C066C066C066C066C19
:10075000066C066C066C066C066C066C066C066C09
:10076000066C066C066C066C066C066C066C066CF9
:10077000066C066C066C066C066C066C066C066CE9
:10078000066C066C066C066C066C066C066C066CD9
:100790000600000000003E5B4F5B3E3E6B4F6B3E31
:1007A0001C3E7C3E1C183C7E3C181C577D571C1C74
:1007B0005E7F5E1C00183C1800FFE7C3E7FF0018CF
:1007C000241800FFE7DBE7FF30483A060E262979B8
:1007D0002926407F050507407F05253F5A3CE73C19
:1007E0005A7F3E1C1C08081C1C3E7F14227F2214CA
:1007F0005F5F005F5F06097F017F006689956A6021
:100800006060606094A2FFA29408047E0408102037
:100810007E201008082A1C08081C2A08081E101030
:1008200010100C1E0C1E0C30383E3830060E3E0EDA
:1008300006000000000000005F0000000700070045
:10084000147F147F14242A7F2A122313086462362B
:10085000495620500008070300001C2241000041B7
:10086000221C002A1C7F1C2A08083E0808008070F1
:100870003000080808080800006060002010080424
:10088000023E5149453E00427F4000724949494677
:100890002141494D331814127F1027454545393CF5
:1008A0004A494931412111090736494949364649E2
:1008B00049291E0000140000004034000000081404
:1008C000224114141414140041221408020159097D
:1008D000063E415D594E7C1211127C7F49494936D2
:1008E0003E414141227F4141413E7F494949417F4B
:1008F000090909013E414151737F0808087F004101
:100900007F41002040413F017F081422417F404049
:1009100040407F021C027F7F0408107F3E4141411E
:100920003E7F090909063E4151215E7F091929468A
:10093000264949493203017F01033F4040403F1FA0
:100940002040201F3F4038403F63140814630304D5
:100950007804036159494D43007F41414102040835
:100960001020004141417F04020102044040404008
:1009700040000307080020545478407F284444383E
:100980003844444428384444287F38545454180088
:10099000087E090218A4A49C787F08040478004407
:1009A0007D40002040403D007F1028440000417FF2
:1009B00040007C047804787C08040478384444447B
:1009C00038FC1824241818242418FC7C0804040873
:1009D000485454542404043F44243C4040207C1C8C
:1009E0002040201C3C4030403C44281028444C907F
:1009F00090907C4464544C440008364100000077D9
:100A00000000004136080002010204023C262326B1
:100A10003C1EA1A161123A4040207A3854545559E5
:100A2000215555794121545478412155547840201D
:100A3000545579400C1E5272123955555559395436
:100A400054545939555454580000457C41000245CE
:100A50007D420001457C40F0292429F0F02825281A
:100A6000F07C545545002054547C547C0A097F493D
:100A700032494949323248484832324A4848303A85
:100A80004141217A3A42402078009DA0A07D39441E
:100A90004444393D4040403D3C24FF2424487E49A5
:100AA00043662B2FFC2F2BFF0929F620C0887E09D7
:100AB0000320545479410000447D413048484A3273
:100AC000384040227A007A0A0A727D0D19317D265B
:100AD00029292F28262929292630484D4020380841
:100AE00008080808080808382F10C8ACBA2F1028C2
:100AF00034FA00007B000008142A142222142A145D
:100B000008AA005500AAAA55AA55AA000000FF008D
:100B1000101010FF00141414FF001010FF00FF103D
:100B200010F010F0141414FC001414F700FF00006F
:100B3000FF00FF1414F404FC141417101F10101FEE
:100B4000101F1414141F00101010F0000000001FDC
:100B5000101010101F10101010F010000000FF10E7
:100B60001010101010101010FF10000000FF1400E3
:100B700000FF00FF00001F10170000FC04F4141415
:100B80001710171414F404F40000FF00F7141414E1
:100B900014141414F700F7141414171410101F1061
:100BA0001F141414F4141010F010F000001F101F84
:100BB0000000001F14000000FC140000F010F010F2
:100BC00010FF10FF141414FF141010101F00000069
:100BD00000F010FFFFFFFFFFF0F0F0F0F0FFFFFF6D
:100BE0000000000000FFFF0F0F0F0F0F38444438C4
:100BF000447C2A2A3E147E02020606027E027E02FF
:100C000063554941633844443C04407E201E20061D
:100C1000027E020299A5E7A5991C2A492A1C4C725A
:100C200001724C304A4D4D303048784830BC625AE1
:100C3000463D3E494949007E0101017E2A2A2A2A71
:100C40002A44445F444440514A444040444A51404D
:100C50000000FF0103E080FF000008086B6B08360E
:100C600012362436060F090F06000018180000007F
:100C70001010003040FF0101001F01011E00191D6E
:100C80001712003C3C3C3C00000000000000000843
:100C90000002010000030407000000000000000043
:100CA00015EF03038002CF0300C130ED046403128B
:100CB00081E803850078CB05392C003402F7012048
:100CC000EA020000C00123C10110C5023E28C7018D
:100CD000863601483A0155B1020018B6030882274A
:100CE000F20100260101E00F0F312B0C0E084EF12E
:100CF000370710030E0900E10F000E14031107312E
:100D0000C148080F0C31360F11807829004C43443C
:100D100020496E697469616C697A6564000000003D
:100D200000000000000008000000000000000000BB
:100D300000000000000000000000000000000000B3
:100D4000D106710630000000000000000000250000
:100D500028002B0000000000240027002A000404C3
:100D60000404040404040202020202020303030353
:100D7000030301020408102040800102040810202F
:100D8000010204081020A01511241FBECFEFD8E0E7
:100D9000DEBFCDBF13E0A0E0B1E0E0E3F2E602C0C9
:100DA00005900D92A035B107D9F724E0A0E5B3E096
:100DB00001C01D92A838B207E1F716E0C4ECD6E0F6
:100DC00004C02197FE010E94F330C33CD107C9F74C
:100DD0000E9416160C9416310C94000090E0FC0151
:100DE000EE58F24F2491825A924FFC01849188234D
:100DF00099F090E0880F991FFC01EC5AF24FA591F1
:100E0000B491FC01E65BF24F859194918FB7F89411
:100E1000EC91E22BEC938FBF08959CB52091640474
:100E20002CBD8EBD00000DB407FEFDCF9CBD089506
:100E3000289A29980E940D07299A08959DB59093A4
:100E40006504289829980E940D07299A0895DC01C5
:100E5000ED91FC910190F081E02D0994AF92BF9249
:100E6000CF92DF92EF92FF920F931F93CF93DF9376
:100E70006C017B018B01040F151FEB015E01AE18A5
:100E8000BF08C017D10759F06991D601ED91FC91C7
:100E90000190F081E02DC6010995892B79F7C501F4
:100EA000DF91CF911F910F91FF90EF90DF90CF9046
:100EB000BF90AF900895FC01538D448D252F30E0F5
:100EC000842F90E0821B930B541710F0CF96089557
:100ED00001970895FC01918D828D981761F0A28D84
:100EE000AE0FBF2FB11D5D968C91928D9F5F9F734A
:100EF000928F90E008958FEF9FEF0895FC01918D00
:100F0000828D981731F0828DE80FF11D858D90E06C
:100F100008958FEF9FEF0895FC01918D228D892F09
:100F200090E0805C9F4F821B91098F7399270895F1
:100F300080EC93E00E948C0721E0892B09F420E0EB
:100F4000822F089580E090E0892B29F00E94980775
:100F500081110C9400000895FC01A48DA80FB92FF5
:100F6000B11DA35ABF4F2C91848D90E001968F73D1
:100F70009927848FA689B7892C93A089B1898C91F0
:100F8000837080648C93938D848D981306C002883F
:100F9000F389E02D80818F7D80830895EF92FF9209
:100FA0000F931F93CF93DF93EC0181E0888F9B8D8C
:100FB0008C8D98131AC0E889F989808185FF15C046
:100FC0009FB7F894EE89FF896083E889F989808169
:100FD0008370806480839FBF81E090E0DF91CF9138
:100FE0001F910F91FF90EF900895F62E0B8D10E05A
:100FF0000F5F1F4F0F731127E02E8C8D8E110CC0C9
:101000000FB607FCFACFE889F989808185FFF5CF13
:10101000CE010E94AC07F1CFEB8DEC0FFD2FF11D3F
:10102000E35AFF4FF0829FB7F8940B8FEA89FB8950
:1010300080818062CFCFCF93DF93EC01888D8823AE
:10104000B9F0AA89BB89E889F9898C9185FD03C02B
:10105000808186FD0DC00FB607FCF7CF8C9185FF10
:10106000F2CF808185FFEDCFCE010E94AC07E9CFA2
:10107000DF91CF91089590E0FC01E457F34F249164
:10108000FC01EE58F24F3491FC01E25AF24FE49128
:10109000EE23C9F0222339F0233001F1A8F42130E6
:1010A00019F1223029F1F0E0EE0FFF1FE65BF24F5D
:1010B000A591B4918FB7F894EC91611126C0309549
:1010C0003E233C938FBF08952730A9F02830C9F004
:1010D000243049F7809180008F7D03C0809180008B
:1010E0008F7780938000DFCF84B58F7784BDDBCF8F
:1010F00084B58F7DFBCF8091B0008F778093B00057
:10110000D2CF8091B0008F7DF9CF3E2BDACF1F93E5
:10111000CF93DF93182FEB010E94EE06209739F44E
:1011200060E0812FDF91CF911F910C943B08CF3F5E
:10113000D10511F461E0F5CFE12FF0E0E457F34F72
:10114000E491E33031F140F4E130B1F0E230E1F02C
:10115000C038D1057CF7E4CFE73029F1E83059F108
:10116000E430B1F780918000806280938000D0935A
:101170008B00C0938A0004C084B5806884BDC7BD5D
:10118000DF91CF911F91089584B5806284BDC8BD61
:10119000F7CF80918000806880938000D093890091
:1011A000C0938800EDCF8091B00080688093B0003C
:1011B000C093B300E5CF8091B00080628093B0000F
:1011C000C093B400DDCF3FB7F8948091560390915F
:1011D0005703A0915803B091590326B5A89B05C0A9
:1011E0002F3F19F00196A11DB11D3FBFBA2FA92FA6
:1011F000982F8827BC01CD01620F711D811D911DA3
:1012000042E0660F771F881F991F4A95D1F708950E
:101210008F929F92AF92BF92CF92DF92EF92FF9206
:101220006B017C010E94E3084B015C01C114D104F5
:10123000E104F104B9F00E94E308681979098A0908
:101240009B09683E73408105910580F321E0C21A35
:10125000D108E108F10888EE880E83E0981EA11CF1
:10126000B11CE4CFFF90EF90DF90CF90BF90AF9094
:101270009F908F9008952FB7F894609152037091CA
:10128000530380915403909155032FBF08950F93FA
:101290001F93FC01289829988AE28EBD009600963B
:1012A000009601D001C00895289A7EBD00000096E6
:1012B00001D001C008958FEF9FEF978F868F6EBD8D
:1012C0000000009601D001C008958485958582179D
:1012D000930781F03EBD0000009601D001C0089543
:1012E0000000358724872EBD00000096009601D0AF
:1012F00001C0089528988BE28EBD00960096009656
:1013000001D001C00895289A5EBD0000009601D06A
:1013100001C008958FEF9FEF958F848F4EBD000021
:10132000009601D001C008958685978580179107A2
:1013300081F01EBD0000009601D001C0089500009C
:10134000178706870EBD00000096009601D001C0E9
:10135000089528988CE28EBD00000096009601D07A
:1013600001C00895289A1F910F910895EF92FF925E
:101370000F931F93CF93DF93EA01F22EE32E9C018C
:10138000240F351F215031098B01AB01BC018EE5C3
:1013900094E00E944709209771F0EEBC02D001D082
:1013A00001C008950000FEBC0096009601D001C067
:1013B0000895219791F7299ADF91CF911F910F916D
:1013C000FF90EF9008952F923F924F925F926F920D
:1013D0007F928F929F92AF92BF92CF92DF92EF92C5
:1013E000FF920F931F93CF93DF9300D000D0CDB720
:1013F000DEB79A8389838B01F8E14F2E512C612C43
:10140000712CAA24A394B12CBCEFCB2EDD24DA944A
:10141000ED2CFD2C22E030E03C832B83912C812CA1
:1014200030E020E0A501B8018B819C81681B790B1D
:1014300029803A8028183908C1010E94B60930E095
:1014400020E0A5016B817C81600F711FC1010E94AA
:10145000B609F7FC19C081E090E02B813C81821B2A
:10146000930B092E000CAA0BBB0BE4E0880F991F0D
:10147000AA1FBB1FEA95D1F7C80ED91EEA1EFB1E94
:10148000215031093C832B83C40CD51CE61CF71C6E
:101490003FEF831A930A82E0A80EB11C90E1490E37
:1014A000511C611C711C2B813C81281539050CF0E5
:1014B000B7CF68E1462E512C612C712C7CEF872E22
:1014C00099249A94A92CB92C82E090E09C838B8378
:1014D000F12CE12CCB80DC80CC0CDD1C9FEFC91AF9
:1014E000D90A30E020E0A601B8016E197F092980F1
:1014F0003A808B819C81281A390AC1010E94B60961
:1015000030E020E0A601B701600F711FC1010E9409
:10151000B609B7FC19C081E090E02B813C81821BA9
:10152000930B092E000CAA0BBB0B44E0880F991FEC
:10153000AA1FBB1F4A95D1F7880E991EAA1EBB1E73
:10154000215031093C832B83840C951CA61CB71CAD
:101550003FEFE31AF30A80E1480E511C611C711C35
:101560002B813C812E153F050CF0B4CF0F900F90CE
:101570000F900F90DF91CF911F910F91FF90EF90FF
:10158000DF90CF90BF90AF909F908F907F906F90A3
:101590005F904F903F902F900895EF92FF920F939E
:1015A0001F93CF93DF93EA01F22EE32E8B01040FFA
:1015B000151F015011099C01AB01BC018EE594E09F
:1015C0000E944709209771F0EEBC02D001D001C003
:1015D00008950000FEBC0096009601D001C0089559
:1015E000219791F7299ADF91CF911F910F91FF9049
:1015F000EF90089530E020E043E050E06DEE70E0C1
:101600008EE391E00E94CD0A30E020E041E050E01E
:101610006EEE70E08FE391E00E94CD0A30E020E0B2
:1016200043E050E06DEE70E08EE391E00E94CD0A61
:1016300030E020E041E050E06EEE70E08DE391E0BC
:101640000E94CD0A30E020E043E050E06DEE70E013
:101650008EE391E00C94CD0ACF93DF93EC019C01D3
:101660004BEB50E06DE870E08CE790E00E94B6092B
:101670009E014BEB50E06BE970E08CE790E00E943C
:10168000B6099E014FE050E06DE870E08CE790E015
:101690000E94CD0A9E014FE050E06DE870E086E3C5
:1016A00091E0DF91CF910C94CD0ACF92DF92EF922F
:1016B000FF920F931F93CF93DF936901E8018A0193
:1016C0000C0F1D1F015011099B012C0D3D1D2150B8
:1016D00031090E944709219790F0C601009771F0E7
:1016E000FEBC02D001D001C008950000EEBC0096FF
:1016F000009601D001C00895019791F7ECCF299A87
:10170000DF91CF911F910F91FF90EF90DF90CF90DD
:101710000895EF92FF920F931F93EEE5F4E0048992
:101720001589228933897C0150E040E070E060E057
:10173000CF010E94550B1F910F91FF90EF900895DC
:101740002F923F924F925F926F927F928F929F92D1
:10175000AF92BF92CF92DF92EF92FF920F931F93BF
:10176000CF93DF93CDB7DEB767970FB6F894DEBFA0
:101770000FBECDBF4C015A0138872F83DC0156962E
:101780002D903C9057970130110509F0A4C1529655
:101790008D919C915397481759070CF07AC0549635
:1017A0008D919C915597281739070CF072C091962E
:1017B000BC91B9876B2E712CCA01FB2FE6E0BE9F4E
:1017C000800D911D1124181619060CF062C09301AA
:1017D000A3E0220F331FAA95E1F74F815885240F0C
:1017E000351F121613060CF054C0D4015896CD9034
:1017F000DC90B5E06B9F70011124F13009F072C0EC
:10180000C214D30409F46EC08A01085F1F4F95010A
:101810002B5F3F4FB501C4010E944709DE011196BD
:1018200090E080E0B7016F56784FFB01E80FF91F99
:10183000E491ED93019685309105B9F71E823D2D17
:10184000432D88E091E061E070E06C0F7D1F6B5FDD
:101850007F4FFE01319621912923D1F10DB407FE6E
:10186000FDCF4EBD00000DB407FEFDCF2EBC6E17A0
:101870007F0789F7990F0DB407FEFDCF3EBD0DB46C
:1018800007FEFDCFCEBC815021F70DB407FEFDCF82
:10189000299AF40181A1F6E08F9FC0011124679677
:1018A0000FB6F894DEBF0FBECDBFDF91CF911F9171
:1018B0000F91FF90EF90DF90CF90BF90AF909F90EF
:1018C0008F907F906F905F904F903F902F900895F2
:1018D0000DB407FEFDCF3EBD00000DB407FEFDCFE9
:1018E000CEBCC5CF3A8ABB86AA86512C412CF701C3
:1018F000EF56F84FFC8BEB8BF5E0E0E04F1629F04C
:10190000EB89FC89E40DF51DE4912985213009F06E
:10191000B8C0A501440D551D052F30E020E0142D61
:101920001A0D6E2F70E0E0FF94C0D40152968D9195
:101930009C9153974817590708F08BC08F81988561
:10194000820F931F54960D90BC91A02D8A179B0770
:1019500008F07FC02998F401A68DB78DA417B507AC
:1019600009F426C02898FAE2FEBD0000009601D0D6
:1019700001C00895D4015F965C934E935E97289AB8
:101980000EBD02D001D001C0089500001EBD02D0DE
:1019900001D001C0089500000EBD02D001D001C0E9
:1019A000089500001EBD0000009601D001C00895FA
:1019B000F401A48DB58DA817B90709F429C028989A
:1019C000FBE2FEBD0000009601D001C00895D401E5
:1019D0005D969C938E935C97289A9EBD02D001D011
:1019E00001C008950000EF81E20FEEBD02D001D0EA
:1019F00001C0089500009EBD02D001D001C008952D
:101A00000000EEBD00000096009601D001C00895D0
:101A10002898BCE2BEBD00960096009601D001C099
:101A20000895289AEA89EEBD00960096009601D0A6
:101A300001C00895D4011D965C934E931C972EBC53
:101A40000000009601D001C00895F40197878687B1
:101A5000299A75956795E62F2F5F3F4F28303105FE
:101A600009F05FCF9FEF491A590AAA85BB85A60DD9
:101A7000B71DBB87AA87B6E04B16510409F03CCFCF
:101A800008CF2F8138853D872C8738E03E874E2F41
:101A900050E0598B488B7101E0FD04C0C214D3049F
:101AA00051F07601830193014C855D856A857B85C4
:101AB000C4010E94550BE889F989F595E7955E8583
:101AC00051505E878C859D85860D971D9D878C87DF
:101AD0005111DDCFC7CF6052710985E0809F900121
:101AE000819F300D1124F901E35EF24F85919491AD
:101AF000FB01EE0FFF1FE80FF91FC590D490F9010D
:101B0000E15EF24FE590F4906E0D7F1DFB01F491C4
:101B1000F9874F2F50E05F874E87F901EF5DF24F55
:101B2000E4910E2F10E0288A3A8A1EBC69856E9FC8
:101B30002001112491962C91919756968D919C910C
:101B400057975896ED90FC90213021F48E159F0503
:101B500009F0B0C08E159F0569F02E9F80011124F9
:101B6000B9852B9F900111244F815885B501C4017F
:101B70000E94550BF40131A0339CF02D1124FF8BF2
:101B80003A943C86712C612C232D30E03E8B2D8BBA
:101B9000641475040CF082C0F6018491FFEFCF1A33
:101BA000DF0A87FF77C08F778F5F8B8BC3016E85CE
:101BB0007F850E94BD302C85222309F444C0D401C6
:101BC00091962C9130E0289F7001299FF00C389F4E
:101BD000F00C1124EA0CFB1C269FC001279F900DDE
:101BE000369F900D11242F803884280E391EBB8912
:101BF000BA87EA85E150EA87EF3F09F10DB407FEA5
:101C0000FDCF0D891E89020D131D2D893E892E0DD4
:101C10003F1DA101B701C4010E944709FC85FF23B4
:101C2000D1F08F89815008F10DB407FEFDCF2A89CC
:101C30002EBD0DB407FEFDCF38893EBDF3CF4B89D5
:101C4000640E711CA5CF7501E80EF91E2F80388433
:101C5000260E371ECCCF0DB407FEFDCF4A894EBDF0
:101C60000DB407FEFDCF58895EBDD40191962C912D
:101C7000822F90E0E80EF91EF5014985249FE00DC2
:101C8000F11D1124EE16FF060CF4B3CF280E391EF9
:101C90007501AFCF8F5F680E711C7ACF0DB407FE50
:101CA000FDCF299AD40191968C91B985B89FC00136
:101CB0001124F5CD8F819885080F191F0150110946
:101CC0002E853F852A0D3B1D21503109AC01B50100
:101CD000C4010E944709141415040CF02CC096018D
:101CE0002F5F3F4FF601849187FF1DC08F778F5F75
:101CF00090E0481A590AD40156964C915697579637
:101D00005C91009771F05EBD02D001D001C00895D2
:101D100000004EBD0096009601D001C008950197C5
:101D200091F76901D8CF8F5F90E0481A590AF40102
:101D3000408D518DE6CF0DB407FEFDCFB2CF5F923F
:101D40006F927F928F929F92AF92BF92CF92DF92CB
:101D5000EF92FF920F931F93CF93DF934A01790184
:101D60005090800422E02093800445E04E9D900135
:101D70004F9D300D1124A7014250510947305105A4
:101D800008F05FC0F901E15EF24F45915491405275
:101D90005109DC01D0E0C0E0ED91EE2351F08A0161
:101DA0000E0F111DE7FD1A95F801E491CE0FD11D1C
:101DB000F3CFE0917F04EC9FA001ED9F500D112423
:101DC000F901EF5DF24FE491C0907F04EC9D60015A
:101DD0001124EB01C41BD50BD7FF02C0D0E0C0E03B
:101DE0002091700430917104BE01640F751F261795
:101DF000370718F4E901C41BD50B20917204309108
:101E00007304A4014C0D5D1D2417350718F4490116
:101E10008C189D083C01B12CA12CF30161913F016C
:101E2000662391F0AE014A0D5B1D062E000C770B68
:101E3000870194018EE594E00E94A00BA80EB91EC4
:101E4000ECCF50E040E0BCCF80916E0490916F04E5
:101E5000A816B906ECF4E0907604F090770420918F
:101E60007404309175042E153F0591F0CA0DDB1DE9
:101E7000C817D9070CF4CE019C012A193B09BE01F1
:101E8000681B790B8601A4018EE594E00E94550B36
:101E900050928004C501DF91CF911F910F91FF9067
:101EA000EF90DF90CF90BF90AF909F908F907F90FA
:101EB0006F905F9008950F931F93CF93DF93DC0192
:101EC000362F6D3009F438C090964C919097042FBE
:101ED00010E025E0429FC0011124FC01E15EF24FB9
:101EE000C591D49170E0FB01B097EC0FFD1F2491D8
:101EF0008F5D924FFC018491413029F1E22FF0E097
:101F000090E091964C91919750E0489FE001499F55
:101F1000D00D589FD00D11241A968D919C911B972E
:101F20003A30B1F48C0F9D1F1B969C938E931A9799
:101F300019961C921E92189781E090E0DF91CF9144
:101F40001F910F91089588E090E0E6E0F0E0D9CF8E
:101F500094962C9194972223F1F04E9F90014F9FDD
:101F6000300D5E9F300D112418964D915C9119979C
:101F7000240F351F52964D915C91539724173507C6
:101F800050F08C0F9D1F1B969C938E931A97199659
:101F90001C921E921897ED012A853B85488559852C
:101FA000CD010E94A00B28853985820F931F998748
:101FB0008887C2CF089590E080E008958EBD00002C
:101FC0000DB407FEFDCF8EB50895CF93CFB7F8942B
:101FD00080915003811124C0E8E6FDE08491ECE794
:101FE000FDE09491E82FF0E0EE0FFF1FEC5AF24F66
:101FF000A591B491EC91E92321F461E08AE00E947B
:102000003B088AE00E94EE068CB580618CBD8CB5E1
:1020100080648CBD8DE00E94EE068BE00E94EE068F
:10202000809150038F5F80935003CFBFCF9108956D
:10203000823429F08E3429F086E00C948708B901A7
:10204000FBCFBA01F9CF61E080915D040C943B08AD
:1020500080E58CBD81E08DBD60E080915D040C94D5
:102060003B081F93CF93DF93182FD62FC42F0E94C6
:10207000281085E00E94DE0F812F0E94DE0F8D2F39
:102080000E94DE0F8C2F0E94DE0FDF91CF911F91F7
:102090000C942310FF920F931F93CF93DF93C82FBD
:1020A000F62E172F042F0E94281083E00E94DE0FC7
:1020B0008C2F0E94DE0FCF2DD12F0C0F1D2F111D45
:1020C000C017D10729F080E00E94DE0F8993F8CF76
:1020D000DF91CF911F910F91FF900C942310CF931C
:1020E000C82F0E94281083E00E94DE0F8C2F0E94D0
:1020F000DE0F80E00E94DE0FC82F0E9423108C2F7D
:10210000CF910895BF92CF92DF92EF92FF920F93FB
:102110001F93CF93DF9300D000D01F92CDB7DEB7CF
:102120008C01000F111F000F111FF801E05FFE4F1F
:1021300045E0BE016F5F7F4F81810E944A108A8116
:10214000C98098E0C99E60011124282F30E055E035
:10215000359527955A95E1F7C20ED31E0D2C000C2C
:10216000EE08FF0883FF20C092E0CC0CDD1CEE1CC3
:10217000FF1C9A95D1F78370C80ED11CE11CF11C8D
:10218000FE2CED2CDC2CCC248B81C80ED11CE11C48
:10219000F11CFE2CED2CDC2CCC248C81C80ED11C27
:1021A000E11CF11C6894F7F88D818F70B82EE8E07F
:1021B00081E090E0EB1528F1F801E05FFE4F8081AF
:1021C0000E946F1083FF02C06894F6F8C092B003BB
:1021D000D092B103E092B203F092B303B092B40391
:1021E000005F1E4F4B2D68EB73E0F80182810E9467
:1021F0004A1040E0F80163818CE20E94311090E0C7
:1022000080E00F900F900F900F900F90DF91CF9183
:102210001F910F91FF90EF90DF90CF90BF900895A6
:10222000CF92DF92EF92FF92CF93C82F482F60EEAC
:102230008FE00E9431100E943B096B017C012AE073
:10224000C20ED11CE11CF11C0E943B096C157D05DE
:102250008E059F0580F48EE00E946F10807EC8136B
:10226000F3CF81E091E0892790E0CF91FF90EF904C
:10227000DF90CF90089580E0F5CFCF930E94281093
:1022800080EA0E94DE0F80E00E94DE0FC82F0E94CD
:10229000231090E080E0C0FD04C0C1FF05C081E0D4
:1022A00090E0CF910C94821085E090E0CF9108955A
:1022B000FF920F931F93CF93DF93C82FF62E172F04
:1022C000042F0E94281082E00E94DE0F8C2F0E94B3
:1022D000DE0FCF2DD12F0C0F1D2F111DC017D107D1
:1022E00021F089910E94DE0FF9CFDF91CF911F91EC
:1022F0000F91FF900C942310CF93DF93D82FC62F0C
:102300000E94281082E00E94DE0F8D2F0E94DE0FB7
:102310008C2F0E94DE0FDF91CF910C9423108F92AF
:102320009F92AF92BF92CF92DF92EF92FF920F9364
:102330001F93CF93DF93CDB7DEB763970FB6F894B3
:10234000DEBF0FBECDBF86E0E1E0F1E0DE011E960C
:1023500001900D928A95E1F75E018EE0A80EB11C06
:102360004E01E4E18E0E911CF501E190F1905F01C8
:102370008701000F111FF801EE0DFF1DE95FFE4FF1
:10238000D0808D2D0E946F1083FD87C08091A003A7
:102390009091A103A091A203B091A303AC01BD0150
:1023A000442777FD4395552766277727242FAC01CF
:1023B000BD01442755276627707488248A94982C79
:1023C000A82CFFE1BF2E211106C088248A94E7E0E3
:1023D0009E2EA12CB12C88219921AA21BB21222338
:1023E00009F44DC08C839B83CD01AA27BB27282FDE
:1023F00023702860382F330F330F330F307E232B99
:102400002A8335E0969587953A95E1F78983C090C0
:10241000A4038C2D452B462B472B09F080648D831C
:102420004C2D50E068EA73E0CE0106960E940D3113
:1024300045E04C0D0E0D1F1DF801E95FFE4FBE017A
:102440006F5F7F4F81810E94581148E068E08D2DB9
:102450000E94311090E080E063960FB6F894DEBFE2
:102460000FBECDBFDF91CF911F910F91FF90EF90E5
:10247000DF90CF90BF90AF909F908F9008959C0178
:1024800093E0369527959A95E1F729838295880FF1
:10249000807E8A831C821B82BACFA814B90409F0FB
:1024A00063CF84E090E0D8CF6F927F928F929F921B
:1024B000AF92BF92CF92DF92EF92FF920F931F9352
:1024C000CF93DF93EC016B013A0179010E943B0944
:1024D0004B015C01CE01DD0FAA0BBB0B8093A00367
:1024E0009093A103A093A203B093A30384E08093ED
:1024F000A40383E08093A80382E28093A9036092FF
:10250000AA03E092AB030E948F110E943D11892B18
:10251000F1F58091B0039091B1038C159D0509F000
:1025200042C08091B40390E025E030E00130110515
:1025300011F026E030E082179307A9F58091B903E6
:10254000823689F58091BA038615170461F580916A
:10255000BB038E151F0439F58091BC0390E0023057
:10256000110531F4982F88272091BD03820F911D0A
:10257000DF91CF911F910F91FF90EF90DF90CF905F
:10258000BF90AF909F908F907F906F9008950E9422
:102590003B09681979098A099B096233710581052C
:1025A000910508F4B2CF90E080E0E2CFFB0101900A
:1025B0000020E9F73197AF01461B570BDC01ED9185
:1025C000FC910280F381E02D09948F929F92AF924B
:1025D000BF92EF92FF920F931F93CF93DF93CDB7EC
:1025E000DEB7A1970FB6F894DEBF0FBECDBF7C015A
:1025F000FA01CB0119A2223008F42AE08E010F5D06
:102600001F4F822E912CB12CA12CBF01A50194014A
:102610000E94D130F901CA016A300CF5605DD80121
:102620006E938D01232B242B252B79F790E080E0EE
:10263000109721F0BD01C7010E94D612A1960FB6D6
:10264000F894DEBF0FBECDBFDF91CF911F910F91E8
:10265000FF90EF90BF90AF909F908F900895695C2E
:10266000DECFCF92DF92EF92FF920F931F93CF9323
:10267000DF936B01770FEE08FF084A305105F1F444
:102680002AE0F7FE1CC0EC016DE20E9427078C01D6
:1026900044275527BA014C195D096E097F092AE0C4
:1026A000CE010E94E512800F911FDF91CF911F9103
:1026B0000F91FF90EF90DF90CF900895242FB701F6
:1026C000A601DF91CF911F910F91FF90EF90DF90C6
:1026D000CF900C94E512CF93DF93BC0180EC93E094
:1026E0000E94D612EC0166E371E080EC93E00E9458
:1026F000D6128C0F9D1FDF91CF9108954F925F925C
:102700006F927F928F929F92AF92BF92CF92DF9201
:10271000EF92FF92CF93DF936B017C01D42FAC013A
:102720009B010E94B83069E371E0811126C0260147
:102730003701E89477F82FEF3FEF4FE75FE7C301EA
:10274000B2010E94B83081110CC02FEF3FEF4FE76C
:102750005FE7C301B2010E94EE2E6DE371E018162F
:1027600064F02FEF3FEF4FE75FE4C701B6010E942F
:1027700046301816A4F461E471E08EE594E0DF9130
:10278000CF91FF90EF90DF90CF90BF90AF909F9050
:102790008F907F906F905F904F900C94D6122FEF98
:1027A0003FEF4FE75FECC701B6010E94EE2E87FDB9
:1027B000E2CF20E030E0A901C701B6010E94EE2E71
:1027C000912C812C87FF0AC06DE28EE594E00E9477
:1027D00027074C01F7FAF094F7F8F094CD2FA12CCD
:1027E00060E070E080E09FE3AD1640F420E030E070
:1027F00040E251E40E94F32EA394F6CFA701960184
:102800000E94822E2B013C010E94652F5B016C010E
:102810002AE0BC01A5018EE594E00E94E5127C014E
:10282000E80CF91CDD23D1F1C601B5010E94942FFB
:102830009B01AC01C301B2010E94812E4B015C01DE
:102840006EE28EE594E00E942707E80EF91EC15063
:1028500028F120E030E040E251E4C501B4010E94DB
:102860004B302B013C010E94652F4B01B12CA12C58
:102870002AE0B501A4018EE594E00E94E512E80E7D
:10288000F91EC501B4010E94942F9B01AC01C30144
:10289000B2010E94812E4B015C01D9CFC701DF91AB
:1028A000CF91FF90EF90DF90CF90BF90AF909F902F
:1028B0008F907F906F905F904F9008950C94D612F8
:1028C0008F929F92AF92BF92CF92DF92EF92FF9240
:1028D0000F931F93DC014A015B0168017901EEE56A
:1028E000F4E080E098EF978B868B118E108E91E04C
:1028F00090A322E630E03187208726EE30E0338750
:10290000228791A34AE050E0BD01CF010E9431131C
:1029100065E471E08EE594E00E945E142AE0B50162
:10292000A4018EE594E00E94E5120E943B099B0100
:10293000AC012C193D094E095F0969017A0166E471
:1029400071E080EC93E00E945E142AE0B501A401DE
:1029500080EC93E00E94E5126BE471E080EC93E080
:102960000E945E14D701C60188199909AA09BB09FA
:102970004C015D012AE0BD01AC0180EC93E00E94B6
:10298000E5126DE173E080EC93E00E945E142AE0B2
:10299000B701A60180EC93E00E94E51266E371E0C6
:1029A00080EC93E00E94D6126FE471E08EE594E033
:1029B0000E945E142AE0B501A4018EE594E00E9415
:1029C000E51261E571E08EE594E00E945E142AE074
:1029D000B701A6018EE594E00E94E5126EED71E06C
:1029E0008EE594E01F910F91FF90EF90DF90CF90D4
:1029F000BF90AF909F908F900C945E141F920F9297
:102A00000FB60F9211242F933F934F935F936F93C1
:102A10007F938F939F93AF93BF93EF93FF9380EC3C
:102A200093E00E94AC07FF91EF91BF91AF919F910E
:102A30008F917F916F915F914F913F912F910F9067
:102A40000FBE0F901F9018951F920F920FB60F9206
:102A500011242F938F939F93EF93FF93E091D003D3
:102A6000F091D1038081E091D603F091D70382FDEC
:102A70001BC090818091D9038F5F8F732091DA03FF
:102A8000821741F0E091D903F0E0E054FC4F958FBC
:102A90008093D903FF91EF919F918F912F910F9088
:102AA0000FBE0F901F9018958081F4CF1F920F9248
:102AB0000FB60F9211242F933F938F939F93AF9351
:102AC000BF938091520390915303A0915403B0910E
:102AD00055033091510323E0230F2D3758F501960C
:102AE000A11DB11D20935103809352039093530372
:102AF000A0935403B09355038091560390915703CC
:102B0000A0915803B09159030196A11DB11D809366
:102B1000560390935703A0935803B0935903BF9162
:102B2000AF919F918F913F912F910F900FBE0F907A
:102B30001F90189526E8230F0296A11DB11DD2CF34
:102B4000CF93DF93E0ECF3E01382128288EE93E000
:102B5000A0E0B0E084839583A683B7838CE191E005
:102B60009183808385EC90E09587848784EC90E066
:102B70009787868780EC90E0918B808B81EC90E04A
:102B8000938B828B82EC90E0958B848B86EC90E02B
:102B9000978B868B118E128E138E148ECEE5D4E019
:102BA0001B821A828EE291E09983888360E087E03D
:102BB0000E943B0887E00E94EE06289A88E00E9467
:102BC000EE06299A89E00E94EE0680EF90E09B8B4A
:102BD0008A8B80E491E09D8B8C8B1BA219861886D2
:102BE0001B861A8621E028A329A38FEF9FEF9F8BD6
:102BF0008E8B198E188E198A188A2CA31AA29D8F73
:102C00008C8F9F8F8E8F9D878C879F878E8782E882
:102C100090E09B8F8A8F0E94E50F8AE080935D048D
:102C20000E94EE06DF91CF910C942310CF93DF9397
:102C3000CDB7DEB7AA970FB6F894DEBF0FBECDBFF3
:102C4000789484B5826084BD84B5816084BD85B587
:102C5000826085BD85B5816085BD80916E00816093
:102C600080936E0010928100809181008260809339
:102C7000810080918100816080938100809180003B
:102C80008160809380008091B10084608093B10066
:102C90008091B00081608093B00080917A00846060
:102CA00080937A0080917A00826080937A0080918C
:102CB0007A00816080937A0080917A0080688093A6
:102CC0007A001092C10086E00E94EE0670E060E09B
:102CD00086E00E948708E091D003F091D10382E062
:102CE0008083E091CC03F091CD031082E091CE037C
:102CF000F091CF0380E180831092D803E091D40358
:102D0000F091D50386E08083E091D203F091D30364
:102D1000808180618083E091D203F091D303808130
:102D200088608083E091D203F091D3038081806832
:102D30008083E091D203F091D30380818F7D8083E3
:102D40000E94E50F8CB5809365048CB58C7F8CBD9B
:102D50008DB581608DBD8CB58F7D8CBD8CB5837F2D
:102D60008CBD8CB58093640461E087E00E943B08D1
:102D700065E070E080E090E00E94080960E087E094
:102D80000E943B0864E170E080E090E00E94080946
:102D900061E087E00E943B0866E970E080E090E037
:102DA0000E940809E0EAFCE0D49001EA1CE0DD2082
:102DB00009F432C0F80184910E941E075801F2E024
:102DC000AF0EB11CF8013196C4900C2D0F77750130
:102DD000102F115040F0F70184910E941807FFEF67
:102DE000EF1AFF0AF6CF0A0D1B2D111DC7FE12C0E8
:102DF00078012FEFE21AF20AF801649170E090E096
:102E000080E06F3F21F464EF71E080E090E00E9489
:102E100008098701DA94CBCF81E08093810486E3AF
:102E20000E941E07E0918104E830E0F4F0E0E55EE6
:102E3000F84E0C94F3302317251831183318351831
:102E4000371839183B1888E40E94180780EF90E083
:102E5000909371048093700480E491E090937304E4
:102E600080937204289829988AE28EBD0096009675
:102E7000009601D001C00895289A1EBC000000965B
:102E8000009601D001C0089510927D0410927C0438
:102E90001EBC0000009601D001C00895809170040E
:102EA00090917104019790936B0480936A049EBD86
:102EB00000960096009601D001C0089580916A04A2
:102EC0008EBD00000096009601D001C0089528989C
:102ED0008BE28EBD00960096009601D001C0089549
:102EE000289A1EBC00000096009601D001C00895EB
:102EF00010927B0410927A041EBC0000009601D050
:102F000001C0089580917204909173040197909389
:102F10006D0480936C049EBD00960096009601D0CF
:102F200001C0089580916C048EBD0000009600964B
:102F300001D001C00895299A8FEF9FEF90937B04F1
:102F400080937A0490937D0480937C0490936B0427
:102F500080936A0490936D0480936C040DE01DE0EF
:102F6000F8016491662341F080EC93E00E94CE0763
:102F70000F5F1F4F892BA1F766E371E080EC93E0B0
:102F80000E94D61290E080E00E94890B83E591E0D8
:102F90000E946B130E94281080EC0E94DE0F0E949A
:102FA00023106AE070E080E090E00E9408098E0142
:102FB0000F5F1F4F8EE0D8011D928A95E9F74EE012
:102FC000B80180E30E9458114EE0B80180E40E94ED
:102FD00058114EE0B80180E50E94581160E080E68B
:102FE0000E947C1160E080E70E947C1163EA8BE222
:102FF0000E947C1144E064E680E60E94311040E0CB
:1030000060E680E70E94311080E80E941011892B51
:1030100061F460E08AE20E947C1160E989E20E942A
:103020007C1162E888E20E947C1180E00E9410110D
:10303000892B19F164E670E080E090E00E940809B5
:1030400086E691E00E946B13F0CF88E20E94180799
:1030500080E491E0909371048093700480EF90E09D
:10306000FDCE88E8F1CE88EEF1CF88ECEDCE88E693
:10307000EDCF88E0E9CE88EAE9CF8FE791E00E94C2
:103080006B130E943B09603177428105910510F076
:103090000C94C62910929F0310929E030E943B0934
:1030A0000091990310919A0320919B0330919C0306
:1030B000601B710B820B930B6B3F710581059105B2
:1030C00008F400C10E943B096093990370939A032E
:1030D00080939B0390939C030E943B098BE497E0B1
:1030E000A0E0B0E08093A0039093A103A093A2037B
:1030F000B093A30383E08093A40382E08093A803AA
:1031000080E18093A90380EC8093AA030E948F1131
:103110000E943B096B017C010E943D11892BB9F48F
:103120008091B0039091B1038B34964081F48091EB
:10313000B403833061F48091B803823041F480910C
:10314000B903803521F48091BA03803C59F00E9484
:103150003B096C197D098E099F0962337105810550
:103160009105D0F26FE070E080E090E00E940809E5
:103170008BE497E0A0E0B0E08093A0039093A103DC
:10318000A093A203B093A30383E08093A40382E0FF
:103190008093A80381E28093A90380EC8093AA0323
:1031A0000E948F110E943B096B017C010E943D111E
:1031B000892B11F00C94D8298091B0039091B10320
:1031C0008B34964011F00C94D8298091B403883048
:1031D00011F00C94D8298091B803803111F00C942F
:1031E000D8298091B9038E3011F00C94D8298091A0
:1031F000BA03813611F00C94D8298091BB03803C2E
:1032000011F00C94D8298091BC038F3711F00C94E5
:10321000E72980918F0320918E0381110BC021112A
:1032200009C090919103911105C090919003992349
:1032300009F448C091E090930001882311F40C94A4
:103240006A2A80918C0390918D038230910511F050
:103250000C944C2A10928D0310928C0380918C0355
:1032600090918D03009711F00C94532AE1E0F0E067
:10327000F0939F03E0939E0310928F0310929003AC
:103280001092910321110C946C2A80919103882350
:10329000C9F080919E0390919F0320918C033091FF
:1032A0008D032115310511F00C94E42A009711F0DB
:1032B0000C94022BA4E0B0E0B0939F03A0939E0374
:1032C0001092910301E010E02AE230E049ED50E075
:1032D00062E576E082E597E00E94541284FF02C026
:1032E0000C94092B84E480938B0301E010E028E226
:1032F00030E049ED50E062E576E082E597E00E943B
:10330000541280FF03C082E480938B0380919E035C
:1033100090919F03892B09F064C30E943B0900919F
:103320008703109188032091890330918A03601BE1
:10333000710B820B930B693E73408105910508F474
:1033400080C60E943B096093870370938803809333
:10335000890390938A0302E010E020E130E046ED1B
:1033600050E06FE876E08FEA96E00E945412BC01CC
:10337000990F880B990B0E94962F20E030E04AE7C6
:1033800054E40E94F32E6B017C01C0928303D0921F
:103390008403E0928503F09286032FE030E046ED4F
:1033A00050E06FE876E08FEA96E00E945412BC018C
:1033B000990F880B990B0E94962F20E030E04AE786
:1033C00054E40E94F32E60937F03709380038093F4
:1033D00081039093820322E130E046ED50E06FE8F4
:1033E00076E08FEA96E00E945412BC01990F880B98
:1033F000990B0E94962F20E030E04AE754E40E94A7
:10340000F32E60937B0370937C0380937D039093F2
:103410007E0321E130E046ED50E06FE876E08FEA90
:1034200096E00E945412BC01990F880B990B0E94E0
:10343000962F20E030E04AE754E40E94F32E609398
:103440007703709378038093790390937A0301E074
:1034500010E02EE030E046ED50E06FE876E08FEAD5
:1034600096E00E945412C29790937603809375035E
:103470002DE030E046ED50E06FE876E08FEA96E030
:103480000E945412C29790937403809373032CE0AC
:1034900030E046ED50E06FE876E08FEA96E00E947B
:1034A0005412C29790937203809371032BE030E023
:1034B00046ED50E06FE876E08FEA96E00E94541205
:1034C000C2979093700380936F0324E830E04BED34
:1034D00050E062E576E082E597E00E945412909316
:1034E0006E0380936D0302E010E026E430E04AEDC5
:1034F00050E062E576E082E597E00E945412BC015C
:10350000990F880B990B0E94962F20E030E04AE734
:1035100054E40E94F32E2B013C0101E010E022E173
:1035200030E049ED50E062E576E082E597E00E9408
:103530005412BC01990F880B990B0E94962F20E022
:1035400030E040E05FE30E944B3020E030E040E2BA
:1035500052E40E94812E4B015C0121E230E04AEDF1
:1035600050E062E576E082E597E00E945412988B85
:103570008F8723E030E048E250E06BE970E0809113
:103580008B030E94181080910001882331F090E095
:1035900080E00E94890B1092000188E196EC9093E4
:1035A000750480937404109277041092760497E067
:1035B00090937E0495E0292E312C3092670420925E
:1035C0006604AAE0B0E0B0936904A093680411E037
:1035D00010937F0442E050E0C701B6010E947E13C1
:1035E00010937E04EEE6F0E0F0936704E093660447
:1035F0002DE2C22ED12CD0926904C092680469EDEC
:1036000071E08EE594E00E945E1410937E042EE13A
:1036100030E030936704209366043FE3E32EF12CFF
:10362000F0926904E092680402E000937F046091E4
:103630007503709176034AE050E08EE594E00E94B5
:10364000311367EF8EE594E00E94270762EE71E088
:103650008EE594E00E945E1437E030937E0489EB9F
:1036600090E09093670480936604AAE0B0E0B09382
:103670006904A093680410937F0460917F037091A4
:103680008003809181039091820342E050E00E9488
:103690007E1310937E04E2E2F1E0F0936704E0937E
:1036A0006604D0926904C092680466EE71E08EE50B
:1036B00094E00E945E1410937E0422ED30E030937B
:1036C000670420936604F0926904E0926804009312
:1036D0007F0460917303709174034AE050E08EE5BB
:1036E00094E00E94311367EF8EE594E00E94270773
:1036F00062EE71E08EE594E00E945E1437E0309354
:103700007E0430926704209266048AEA90E09093E7
:1037100069048093680410937F0460917B03709127
:103720007C0380917D0390917E0342E050E00E94F3
:103730007E1310937E04AEE6B0E0B0936704A093CE
:1037400066044DECC42ED12CD0926904C09268045A
:1037500066EE71E08EE594E00E945E1410937E04A4
:10376000EEE1F0E0F0936704E09366045FEDE52E90
:10377000F12CF0926904E092680400937F04609158
:103780007103709172034AE050E08EE594E00E946C
:10379000311367EF8EE594E00E94270762EE71E037
:1037A0008EE594E00E945E14F7E0F0937E0429EB2E
:1037B00030E030936704209366048AEA90E09093A7
:1037C00069048093680410937F046091770370917B
:1037D00078038091790390917A0342E050E00E944F
:1037E0007E1310937E04A2E2B1E0B0936704A0932D
:1037F0006604D0926904C092680466EE71E08EE5BA
:1038000094E00E945E1410937E04E2EDF0E0F093E9
:103810006704E0936604F0926904E0926804009300
:103820007F0460916F03709170034AE050E08EE571
:1038300094E00E94311367EF8EE594E00E94270721
:1038400062EE71E08EE594E00E945E1410937E04B7
:10385000309267042092660424E630E030936904D5
:103860002093680400937F046BEE71E08EE594E092
:103870000E945E1443E050E0C301B2010E947E1337
:1038800061EF71E08EE594E00E945E144AE050E042
:103890006F8578898EE594E00E9431136DEF71E0B9
:1038A0008EE594E00E945E1410937E0430926704CB
:1038B0002092660488E790E09093690480936804FE
:1038C00000937F0462E072E08EE594E00E945E1453
:1038D00041E050E0C501B4010E947E1367EF8EE520
:1038E00094E00E94270762EE71E08EE594E00E946A
:1038F0005E1480916D0390916E038F3F910511F4DA
:103900000C943F2B10937E0430926704209266043F
:103910008CE8E82EF12CF0926904E09268040093A0
:103920007F046AE072E08EE594E00E945E1460918C
:103930006D0370916E034AE050E08EE594E00E94C2
:1039400031136DEF71E08EE594E00E945E142091DA
:103950006D0330916E032B30310514F00C940C2B59
:1039600088E196EC909375048093740480E098EF5E
:10397000909377048093760410937E0430926704CA
:1039800020926604F0926904E09268046AE072E0B2
:103990008EE594E00E945E1460916D0370916E0359
:1039A0004AE050E08EE594E00E94311360E172E05D
:1039B0008EE594E00E945E14E12C08EFF02E00E109
:1039C00010E02BEB30E04CE850E066E970E08EE56B
:1039D00094E00E94550B68EC70E088EC90E00E9447
:1039E000E30980919E0390919F03019709F029C3F9
:1039F0000E943B090091870310918803209189035D
:103A000030918A03601B710B820B930B693E7340EC
:103A10008105910508F479C60E943B0960938703EC
:103A2000709388038093890390938A0302E010E0E7
:103A300029E230E044ED50E068E876E088EA96E07C
:103A40000E945412BC01990F880B990B0E94962F6B
:103A500029E030E048E45AE30E944B3020E030E0B7
:103A600040E85EE30E94812E6093690370936A03CD
:103A700080936B0390936C0301E010E023E830E047
:103A80004BED50E062E576E082E597E00E9454124B
:103A90008897909368038093670302E010E02AE020
:103AA00030E044ED50E068E876E088EA96E00E9475
:103AB0005412909366038093650326E430E04AED48
:103AC00050E062E576E082E597E00E945412BC0186
:103AD000990F880B990B0E94962F20E030E04AE75F
:103AE00054E40E94F32E2B013C0101E010E025E498
:103AF00030E04AED50E062E576E082E597E00E9432
:103B00005412BC01990F880B990B0E94962F20E04C
:103B100030E040E251E40E94F32E4B015C0122E1CF
:103B200030E049ED50E062E576E082E597E00E9402
:103B30005412BC01990F880B990B0E94962F20E01C
:103B400030E040E05FE30E944B3020E030E040E2B4
:103B500052E40E94812E609361037093620380930C
:103B600063039093640302E010E02DE030E044ED45
:103B700050E068E876E088EA96E00E9454129C8B58
:103B80008B8B01E010E029E030E044ED50E068E884
:103B900076E088EA96E00E945412988B8F8702E0C4
:103BA00010E028E230E047ED50E068E876E088EA8F
:103BB00096E00E94541223E030E048E250E06BE9C6
:103BC00070E080918B030E9418108091000188237F
:103BD00009F40FC190E080E00E94890B28E136ECE7
:103BE00040EF50E070E060E080EA90E00E94CD0A93
:103BF00028E136EC40E451E060E570E090E080E0E0
:103C00000E94B60928E136EC40E451E060EA70E039
:103C100090E080E00E94B60988E196EC90937504EC
:103C2000809374041092770410927604CC24C39489
:103C3000C0927E0473EAE72EF12CF0926704E092C2
:103C40006604E3E02E2E312C309269042092680441
:103C5000F2E0DF2ED0927F0468E272E08EE594E01D
:103C60000E945E14C0927E0484E091E09093670409
:103C70008093660409E110E01093690400936804DE
:103C8000D0927F0467EF8EE594E00E942707C092F0
:103C90007E04309267042092660430926904209278
:103CA0006804D0927F046FE272E08EE594E00E9497
:103CB0005E14C0927E04E4E6F0E0F0936704E093C3
:103CC00066041093690400936804D0927F0467EF40
:103CD0008EE594E00E942707C0927E04309267042C
:103CE0002092660423E530E0309369042093680451
:103CF000D0927F0464E372E08EE594E00E945E144B
:103D0000C0927E048FE890E09093670480936604ED
:103D100002E810E01093690400936804D0927F04D5
:103D200069E372E08EE594E00E945E14C0927E0426
:103D3000F0926704E0926604A3E5B0E0B0936904F2
:103D4000A0936804D0927F046BE372E08EE594E068
:103D50000E945E14C0927E048CE191E0909367040F
:103D6000809366041093690400936804D0927F04E2
:103D700061E472E08EE594E00E945E14C0927E04DD
:103D80003092670420926604F0926904E09268041D
:103D9000D0927F0463E472E08EE594E00E945E14AA
:103DA000C0927E04EFE8F0E0F0936704E0936604CD
:103DB0008EEB90E09093690480936804D0927F0426
:103DC00067EF8EE594E00E942707C0927E04F09290
:103DD0006704E0926604F0926904E0926804D0926D
:103DE0007F0469E472E08EE594E00E945E14109214
:103DF00000014AE06AE573E08091650390916603F3
:103E00000E94DE2B809165039091660380359105B9
:103E100014F00C945D2B8FED93E0909375048093D8
:103E20007404109277041092760411E010937F04CA
:103E300027E030E049E150E064E071E08AE593E09A
:103E40000E949F0E88E196EC909375048093740411
:103E5000109277041092760410937E0484E091E02F
:103E6000909367048093660487E390E090936904DD
:103E70008093680482E080937F044AE050E06B897D
:103E80007C898EE594E00E9431136FED71E08EE540
:103E900094E00E945E144AE06AE573E08091670353
:103EA000909168030E94DE2B8091670390916803D4
:103EB0008035910514F00C946F2B8FED93E0909367
:103EC0007504809374041092770410927604FF2492
:103ED000F394F0927F0427E030E049E150E064E69B
:103EE00070E08AE593E00E949F0E609169037091F3
:103EF0006A0380916B0390916C030AE513E022E062
:103F000045E00E94C02B2FEF37E0309375042093DB
:103F100074041092770410927604F0927F0427E0E4
:103F200030E049E650E06CE171E0C8010E949F0E6C
:103F300022E045E0C301B2010E94C02B8FEF97E061
:103F40009093750480937404109277041092760411
:103F5000F0927F0427E030E049E650E06CE870E042
:103F6000C8010E949F0E88E196EC9093750480939F
:103F700074041092770410927604F0927E048EE618
:103F800090E0909367048093660485E590E09093B9
:103F900069048093680482E080937F0441E050E0EC
:103FA000C501B4010E947E136091610370916203A8
:103FB000809163039091640321E047E00E94C02B4D
:103FC000AFEFB7E0B0937504A09374041092770438
:103FD00010927604F0927F0427E030E049EB50E045
:103FE0006CE870E0C8010E949F0E8F859889019748
:103FF000069710F00C94812BEFEFF7E0F093750427
:10400000E0937404109277041092760487E0809312
:104010007E048CED90E0909367048093660489EBB6
:1040200090E09093690480936804F0927F044AE0E2
:1040300050E06F8578898EE594E00E9431130E94EC
:10404000FA0A80919E0390919F03029709F05DC345
:104050000E943B09009187031091880320918903F6
:1040600030918A03601B710B820B930B693E734086
:104070008105910508F4CEC40E943B096093870333
:10408000709388038093890390938A0302E010E081
:1040900029E830E044ED50E068E876E088EA96E010
:1040A0000E945412BC01990F880B990B0E94962F05
:1040B00020E030E04AE75CE30E944B306F87788B6A
:1040C000898B9A8B2EE830E044ED50E068E876E08A
:1040D00088EA96E00E945412BC01990F880B990B54
:1040E0000E94962F20E030E04AE75CE30E944B30CC
:1040F0006B8B7C8B8D8B9E8B24E130E044ED50E00C
:1041000068E876E088EA96E00E945412988F8F8BD8
:104110002EE730E044ED50E068E876E088EA96E08B
:104120000E945412BC01990F880B990B0E94962F84
:1041300020E030E543E456E40E94F32E6B8F7C8F41
:104140008D8F9E8F2DE830E044ED50E068E876E0FA
:1041500088EA96E00E945412BC01990F880B990BD3
:104160000E94962F20E030E543E456E40E94F32EAF
:104170006F8F78A389A39AA329ED30E044ED50E036
:1041800068E876E088EA96E00E945412BC01990F34
:10419000880B990B0E94962F20E030E040EA5DE307
:1041A0000E944B3020E030E048EC52E40E94F32EB5
:1041B0006BA37CA38DA39EA32AED30E044ED50E0D9
:1041C00068E876E088EA96E00E945412BC01990FF4
:1041D000880B990B0E94962F2AE037ED43EA5DE3A6
:1041E0000E944B3020E030E04AE754E40E94F32E76
:1041F0002B013C012FE730E044ED50E068E876E029
:1042000088EA96E00E945412BC01990F880B990B22
:104210000E94962F20E030E040EC5CE30E944B309F
:1042200023E333E948E853E40E94812E4B015C010B
:1042300001E010E021E130E044ED50E068E876E094
:1042400088EA96E00E945412BC01990F880B990BE2
:104250000E94962F20E030E040E45FE30E944B3064
:1042600020E030E040E452E40E94812E6FA378A762
:1042700089A79AA723E030E048E250E06BE970E0BC
:1042800080918B030E94181080910001882309F40B
:1042900025C190E080E00E94890B28E136EC40EFD8
:1042A00050E070E060E080EA90E00E94CD0A28E1F2
:1042B00036EC40E451E060E570E090E080E00E9480
:1042C000B60928E136EC40E451E060EA70E090E0A5
:1042D00080E00E94B60988E196EC90937504809383
:1042E000740410927704109276042224239420926E
:1042F0007E0443EAE42EF12CF0926704E092660417
:1043000053E0C52ED12CD0926904C092680462E0BB
:10431000362E30927F046FE472E08EE594E00E94C6
:104320005E1420927E0484E091E090936704809371
:10433000660489E190E09093690480936804309268
:104340007F0467EF8EE594E00E94270720927E04A9
:10435000D0926704C0926604D0926904C092680447
:1043600030927F046CE572E08EE594E00E945E146A
:1043700020927E0484E690E0909367048093660424
:1043800082E390E0909369048093680430927F0404
:1043900065E672E08EE594E00E945E1420927E0451
:1043A000D0926704C092660403E510E0109369049C
:1043B0000093680430927F0469E672E08EE594E031
:1043C0000E945E1420927E04ABE7B0E0B0936704D5
:1043D000A093660482E890E0909369048093680457
:1043E00030927F0467EE71E08EE594E00E945E14E7
:1043F00020927E04F0926704E092660410936904B0
:104400000093680430927F0461E772E08EE594E0E7
:104410000E945E1420927E0401E311E01093670471
:104420000093660489E690E09093690480936804A1
:1044300030927F0467EF8EE594E00E942707209278
:104440007E04D0926704C0926604F0926904E09200
:10445000680430927F0469E772E08EE594E00E9480
:104460005E1420927E04EBE7F0E0F0936704E093A3
:10447000660482ED90E09093690480936804309222
:104480007F0467EE71E08EE594E00E945E14209256
:104490007E04F0926704E0926604F0926904E09270
:1044A000680430927F046FE772E08EE594E00E942A
:1044B0005E1420927E04109367040093660489EBD7
:1044C00090E0909369048093680430927F0467EFD2
:1044D0008EE594E00E942707109200018E010F5F85
:1044E0001F4F20E043E06F85788989899A890E946F
:1044F000C02B2FEF37E03093750420937404109293
:104500007704109276043324339430927F0427E0AA
:1045100030E049E150E06FE570E0C8010E949F0E75
:1045200088E196EC9093750480937404109277045C
:104530001092760430927E04AEE6B0E0B093670449
:10454000A093660485E090E09093690480936804EA
:1045500032E0232E20927F0450E040E06B897C897A
:104560008D899E890E947E134AE0B8018F89988DBB
:104570000E94DE2BEFEFF7E0F0937504E0937404F4
:10458000109277041092760430927F0427E030E096
:1045900049E150E064E071E0C8010E949F0E22E012
:1045A00045E06B8D7C8D8D8D9E8D0E94C02B2FEFF5
:1045B00037E03093750420937404109277041092BE
:1045C000760430927F0427E030E049E650E06AE765
:1045D00070E0C8010E949F0E88E196EC90937504EC
:1045E00080937404109277041092760430927E04C3
:1045F000AEE6B0E0B0936704A093660485E590E072
:10460000909369048093680420927F0442E050E014
:104610006F8D78A189A19AA10E947E1322E045E0C6
:104620006BA17CA18DA19EA10E94C02BEFEFF7E0B2
:10463000F0937504E093740410927704109276045A
:1046400030927F0427E030E049EB50E06AE770E009
:10465000C8010E949F0E28E136EC30937504209328
:104660007404109277041092760430927E048EE6E1
:1046700090E09093670480936604A5EAB0E0B0935D
:104680006904A093680420927F0442E050E0C301D3
:10469000B2010E947E1321E043E0C501B4010E94F3
:1046A000C02BEFEFF7E0F0937504E09374041092E1
:1046B00077041092760430927F0427E030E049E6D8
:1046C00050E061E371E0C8010E949F0E21E043E0E9
:1046D0006FA178A589A59AA50E94C02B2FEF37E07E
:1046E000309375042093740410927704109276042A
:1046F00030927F0427E030E049EB50E061E371E065
:10470000C8010E949F0E0E94FA0A80919E03909118
:104710009F03039709F07EC10E943B090091870324
:10472000109188032091890330918A03601B710BDB
:10473000820B930B693E73408105910508F4AAC46E
:104740000E943B09609387037093880380938903D9
:1047500090938A0302E010E026E430E04AED50E056
:1047600062E576E082E597E00E945412BC01990F61
:10477000880B990B0E94962F20E030E04AE754E422
:104780000E94F32E2B013C0101E010E025E430E013
:104790004AED50E062E576E082E597E00E9454122F
:1047A000BC01990F880B990B0E94962F20E030E0F6
:1047B00040E251E40E94F32E4B015C0127E430E01B
:1047C0004AED50E062E576E082E597E00E945412FF
:1047D0008897988B8F8721E230E04AED50E062E5C0
:1047E00076E082E597E00E9454129C8B8B8B02E06E
:1047F00010E02CE430E04AED50E062E576E082E53E
:1048000097E00E945412BC01990F880B990B0E94EB
:10481000962F20E030E048EC52E40E94F32E6F8B9C
:10482000788F898F9A8F29E430E04AED50E062E575
:1048300076E082E597E00E945412BC01990F880B44
:10484000990B0E94962F2AE037ED43EA5BE30E9422
:104850004B306B017C0123E030E048E250E06BE933
:1048600070E080918B030E941810809100018823D2
:1048700031F090E080E00E94890B1092000180EE00
:1048800097E09093750480937404109277041092CB
:10489000760411E010937E0423E0222E312C309216
:1048A00067042092660484E190E090936904809309
:1048B000680410937F0465E872E08EE594E00E943E
:1048C0005E1443E050E0C301B2010E947E136BE826
:1048D00072E08EE594E00E945E1441E050E0C50174
:1048E000B4010E947E1360E972E08EE594E00E94BC
:1048F0005E1410937E0430926704209266048EE169
:1049000090E0909369048093680410937F0465E9B4
:1049100072E08EE594E00E945E144AE050E06F85FC
:1049200078898EE594E00E94311367EF8EE594E07C
:104930000E94270762EE71E08EE594E00E945E140B
:1049400010937E04309267042092660488E290E01F
:10495000909369048093680410937F0461EA72E085
:104960008EE594E00E945E144AE050E06B897C89F9
:104970008EE594E00E9431136AEA72E08EE594E0DD
:104980000E945E1410937E043092670420926604A5
:1049900082E390E0909369048093680410937F040D
:1049A0006EEA72E08EE594E00E945E1442E050E010
:1049B0006F89788D898D9A8D0E947E1368EB72E0E5
:1049C0008EE594E00E945E1410937E04309267049A
:1049D00020926604ACE3B0E0B0936904A09368044D
:1049E00010937F0460EC72E08EE594E00E945E1408
:1049F00043E050E0C701B6010E947E136CEC72E008
:104A00008EE594E00E945E1462E370E082E390E041
:104A10000E94E30980919E0390919F03049709F0FF
:104A200039C30E943B0900918703109188032091AC
:104A3000890330918A03601B710B820B930B693ED3
:104A400073408105910508F480C30E943B0960937F
:104A50008703709388038093890390938A0302E00D
:104A600010E024EC30E048ED50E062E576E082E5CD
:104A700097E00E945412BC01990F880B990B0E9479
:104A8000962F20E030E048EC52E40E94F32E6B8B2E
:104A90007C8B8D8B9E8B27EC30E048ED50E062E5FF
:104AA00076E082E597E00E945412BC01990F880BD2
:104AB000990B0E94962F20E030E040E251E40E94E2
:104AC000F32E6B017C0128EC30E048ED50E062E50C
:104AD00076E082E597E00E945412BC01990F880BA2
:104AE000990B0E94962F20E030E040E251E40E94B2
:104AF000F32E6F8B788F898F9A8F21EE30E048EDFF
:104B000050E062E576E082E597E00E9454129C8FC7
:104B10008B8F28E230E047ED50E068E876E088EAE5
:104B200096E00E945412BC01990F880B990B0E94C9
:104B3000962F20E030E040E85DE30E944B302B01EF
:104B40003C0130E020E044ED50E068E876E088EA9F
:104B500096E00E945412BC01990F880B990B0E9499
:104B6000962F6F87788B898B9A8B9B01AC01C30141
:104B7000B2010E944B3023EE37EC48E151E40E9431
:104B8000F32E20E030E04AE754E40E94F32E4B017C
:104B90005C0123E030E048E250E06BE970E0809196
:104BA0008B030E94181080910001882309F46CC1C6
:104BB00090E080E00E94890B1092000128E136EC21
:104BC00040EA50E070E060E080EA90E00E94CD0AA8
:104BD00028E136EC40E451E060E570E090E080E0F0
:104BE0000E94B60928E136EC40E451E060EA70E04A
:104BF00090E080E00E94B609E8E1F6ECF0937504DD
:104C0000E093740410927704109276043324339462
:104C100030927E0423E030E03093670420936604F2
:104C2000309369042093680492E0292E20927F0437
:104C300061ED72E08EE594E00E945E1430927E0495
:104C400008E710E010936704009366048EE390E099
:104C5000909369048093680430927F046CED72E055
:104C60008EE594E00E945E14A8E1B6ECB093750462
:104C7000A0937404109277041092760430927E040C
:104C8000E3E0F0E0F0936704E093660423E530E0AE
:104C9000309369042093680420927F0462EE72E0EE
:104CA0008EE594E00E945E1430927E0410936704B7
:104CB000009366048EE890E0909369048093680402
:104CC00030927F046CED72E08EE594E00E945E14F9
:104CD000A8E1B6ECB0937504A09374041092770425
:104CE0001092760430927E0403EA10E01093670479
:104CF00000936604E3E0F0E0F0936904E093680455
:104D000020927F046EEE72E08EE594E00E945E14C5
:104D100030927E0422E231E03093670420936604EF
:104D20008EE390E0909369048093680420927F045E
:104D300064EF72E08EE594E00E945E14A8E1B6ECA8
:104D4000B0937504A09374041092770410927604C3
:104D500030927E041093670400936604E3E5F0E06C
:104D6000F0936904E093680420927F0466EF72E098
:104D70008EE594E00E945E1430927E0422E231E0DF
:104D800030936704209366048EE890E09093690462
:104D90008093680420927F0461E073E08EE594E0E4
:104DA0000E945E14A8E1B6ECB0937504A09374045D
:104DB000109277041092760430927E04E3E0F0E0E3
:104DC000F0936704E0936604109369040093680409
:104DD00020927F0464E073E08EE594E00E945E140C
:104DE00030927E042CE330E0309367042093660415
:104DF0000DEC10E0109369040093680420927F0486
:104E000064E173E08EE594E00E945E1430927E04CB
:104E100085EA90E090936704809366041093690498
:104E20000093680420927F046AE173E08EE594E0C9
:104E30000E945E1430927E04A2E2B1E0B093670457
:104E4000A0936604109369040093680420927F0481
:104E500061E273E08EE594E00E945E1430927E047D
:104E6000E2E2F1E0F0936704E09366048FEA90E0F9
:104E7000909369048093680420927F0464E273E055
:104E80008EE594E00E945E1420E030E0A901C701A5
:104E9000B6010E9446300AE513E087FD55C420E0C4
:104EA00030E048EC52E4C701B6010E94EE2E18161D
:104EB0000CF44AC421E045E0C701B6010E94C02BB2
:104EC0002FEF37E030937504209374041092770429
:104ED0001092760481E080937F0427E030E049E17E
:104EE00050E068E770E0C8010E949F0E0AE513E0F9
:104EF00021E043E06F89788D898D9A8D0E94C02BC7
:104F0000AFEFB7E0B0937504A093740410927704E8
:104F100010927604FF24F394F0927F0427E030E0AF
:104F200049E650E068E770E0C8010E949F0E21E06A
:104F300043E06B897C898D899E890E94C02BEFEFAD
:104F4000F7E0F0937504E0937404109277041092E4
:104F50007604F0927F0427E030E049E150E062E21D
:104F600071E0C8010E949F0E2B8D3C8DB901330F5B
:104F7000880B990B0E94962F20E044E00E94C02BE2
:104F80008FEF97E0909375048093740410927704E8
:104F900010927604F0927F0427E030E049E650E07A
:104FA00062E271E0C8010E949F0E20E043E0C3016D
:104FB000B2010E94C02BAFEFB7E0B0937504A0938D
:104FC0007404109277041092760483E0E82EE09245
:104FD0007F0421E030E048EC50E065E070E0C8017B
:104FE0000E949F0EF0927E04E5EAF0E0F0936704E1
:104FF000E09366048DEC90E09093690480936804DC
:1050000082E080937F0420E044E06F85788989897D
:105010009A890E94C02B21E030E04DEC50E063E71C
:1050200070E0C8010E949F0E2FEF37E030937504A7
:10503000209374041092770410927604E0927F0417
:1050400020E043E0C501B4010E94C02B21E030E024
:1050500048EC50E066EE70E0C8010E949F0E2FE71A
:105060003AE64CE35FE3C501B4010E94F32E20E071
:1050700043E00E94C02B21E030E04AEA50E066EEB7
:1050800070E0C8010E949F0E70E060E08EE391E046
:105090000E94E30980919E0390919F0384369105BD
:1050A00009F053C00E943B090091870310918803C7
:1050B0002091890330918A03601B710B820B930B43
:1050C000693E73408105910508F49AC00E943B092E
:1050D00060938703709388038093890390938A0376
:1050E00023E030E048E250E06BE970E080918B0310
:1050F0000E94181080910001882331F08FE190E028
:105100000E94890B1092000180EE97E09093750445
:1051100080937404109277041092760481E0809357
:105120007E0423E030E03093670420936604ACE310
:10513000B0E0B0936904A093680480937F046BE2AD
:1051400073E08EE594E00E945E1480919E0390913E
:105150009F038536910509F053C00E943B090091D9
:105160008703109188032091890330918A03601B83
:10517000710B820B930B693E73408105910508F416
:105180009AC00E943B0960938703709388038093C1
:10519000890390938A0323E030E048E250E06BE912
:1051A00070E080918B030E94181080910001882389
:1051B00031F08FE190E00E94890B10920001E0EE47
:1051C000F7E0F0937504E093740410927704109262
:1051D000760481E080937E0423E030E0309367041E
:1051E000209366042CE330E0309369042093680434
:1051F00080937F0466E373E08EE594E00E945E1482
:1052000080919E0390919F03883C910509F053C0C3
:105210000E943B0900918703109188032091890324
:1052200030918A03601B710B820B930B693E7340B4
:105230008105910508F49AC00E943B096093870399
:10524000709388038093890390938A0323E030E06E
:1052500048E250E06BE970E080918B030E941810E7
:1052600080910001882331F080EE9FEF0E94890B2E
:105270001092000180EE97E090937504809374047F
:10528000109277041092760481E080937E0423E0EC
:1052900030E03093670420936604ACE3B0E0B09351
:1052A0006904A093680480937F046AE373E08EE549
:1052B00094E00E945E1480919E0390919F03893C2C
:1052C000910509F053C00E943B090091870310919A
:1052D00088032091890330918A03601B710B820B34
:1052E000930B693E73408105910508F43FC00E940D
:1052F0003B0960938703709388038093890390939D
:105300008A0323E030E048E250E06BE970E08091EE
:105310008B030E94181080910001882331F080EEE9
:105320009FEF0E94890B10920001E0EEF7E0F093EE
:105330007504E0937404109277041092760481E06F
:1053400080937E0423E030E030936704209366046A
:105350002CE330E0309369042093680480937F0449
:1053600065E473E08EE594E00E945E1480E090E0D6
:10537000892B11F40C9441180E949807882311F48A
:105380000C9441180E9400000C94411880919D03D8
:1053900081110C944E1881E080939D03809300014D
:1053A000E1E0F0E0F0939F03E0939E030C944E182D
:1053B0000E943B096C197D098E099F09683C7105A3
:1053C0008105910510F40C94D6180C94091980FDF0
:1053D00002C00C940919309198039091970390930F
:1053E00096039091950390939403909193039093D7
:1053F000920391E0282F207486FF90E09093980309
:10540000982F991F9927991F9093970385FB9927A8
:1054100090F9909395038295817080939303311155
:1054200009C0222339F081E08093910380E991E063
:105430000E946B138091960381110BC0809197039A
:10544000882339F081E08093900384EA91E00E9400
:105450006B138091940381110BC080919503882375
:1054600039F081E080938F0389EB91E00E946B1308
:105470008091920381110C940919809193038823E0
:1054800011F40C94091981E080938E0388EC91E06B
:105490000E946B130C940919019690938D038093CD
:1054A0008C030C942E198130910541F484E690E030
:1054B00090939F0380939E030C943C19029711F0E4
:1054C0000C943C19A8ECB0E0B0939F03A0939E030A
:1054D0000C943C192223F1F080918C0390918D0360
:1054E000009781F5E2E0F0E0F0938D03E0938C0308
:1054F00080918C0390918D03009751F521E030E06D
:1055000030939F0320939E0310928E03109290037A
:105510001092910380919003882311F40C94451903
:1055200080919E0390919F0320918C0330918D0375
:105530002115310579F50097F1F08430910529F1B5
:1055400001963DC0019790938D0380938C03D0CF3B
:105550008130910539F484E690E090939F03809325
:105560009E03D2CF029781F6A8ECB0E0B0939F03E0
:10557000A0939E03C9CFE1E0F0E0F0939F03E09396
:105580009E03109290030C94451910929F03109261
:105590009E03F7CF2130310551F48536910581F610
:1055A00024E630E030939F0320939E03EACF22301D
:1055B000310539F7893C910519F688EC90E0909314
:1055C0009F0380939E03DDCF2130310559F484364B
:1055D0009105C1F4E5E6F0E0F0939F03E0939E03AC
:1055E0000C9460192230310511F00C946019883C3C
:1055F000910541F429EC30E030939F0320939E0302
:105600000C946019019790939F0380939E030C94D0
:1056100060198EE40C94731949EB429FC001439FBB
:10562000900D112464E670E00E94BD306B012A31B8
:10563000310584F480E098EF0E942C0BE12C18EFE8
:10564000F12E0DE010E096014EE850E06DE770E0BD
:105650000C94E71C293231054CF480E29DEF0E9446
:105660002C0BB0E2EB2EBDEFFB2EEBCF80EE97E0E4
:105670000E942C0BA0EEEA2EA7E0FA2EE2CFA8E1C2
:10568000B6ECB0937504A093740410927704109252
:10569000760410937E0430926704209266048CE8AE
:1056A00090E0909369048093680469E172E08EE56C
:1056B00094E00E945E140C94EB1C8E36910524F449
:1056C00080EE93E00C940D1F8337910524F480E263
:1056D0009DEF0C940D1F80E098EF0C940D1F883700
:1056E000910524F480EE93E00C945F1F86399105B8
:1056F00024F480E29DEF0C945F1F80E098EF0C94FF
:105700005F1F2FEF37E030937504209374041092DD
:1057100077041092760487E080937E048CED90E00D
:10572000909367048093660489EB90E090936904FA
:1057300080936804F0927F0469E273E08EE594E060
:105740000E945E140C941F2021E044E0C701B601C2
:105750000E94C02B8FEF97E09093750480937404A0
:10576000109277041092760481E080937F0427E002
:1057700030E049E150E068E770E087E293E0B4CBC5
:10578000EF920F931F93CF93DF93E80134E047FD2F
:1057900034E1042E000C550B57FF03C05195419581
:1057A0005109E32E022F242FAE010E94032CCE01BB
:1057B000DF91CF911F910F91EF900895BB274A3051
:1057C00031F4992322F4BDE2909581959F4F0C947A
:1057D000EA2BBB27FB015527AA27880F991FAA1F71
:1057E000A41710F0A41B83955051B9F7A05DAA33FC
:1057F00008F0A95DA193009779F7B111B1931192C7
:10580000CB010C943A2EA9E0B0E0E9E0FCE20C9464
:10581000502E6A01F22EB02E102FFBE3AF2EA016F1
:1058200008F41BE31F5F012F27E0AE014F5F5F4FBE
:105830000E94622DBC018981982F9970913009F4E2
:105840003FC09BE2E1FC04C09E2D9170E0FC3AC099
:105850005E2D5071E82FE87083FF46C084E09111FF
:1058600001C083E0EF2DE81B8F1508F0E0E0D601C2
:105870008E2F20E2552351F1992329F0D6019C93D4
:10588000C60101966C0196012D5F3F4FE2FE24C0D8
:105890008EE4D6018C9391E411969C931197129605
:1058A0008C93D9018E2F90E281111BC0E20FF32F50
:1058B000F11D10828EEF9FEF2996ECE00C946C2E78
:1058C0009DE2C6CF90E2C4CF2D9381508111FCCFD1
:1058D000CE0ED11CE0E0D0CF8EE6D6018C9391E6BF
:1058E000DBCF9D938150E0CF482F447082FF3DC0B5
:1058F00084E0911101C083E08F1510F4EF2DE81BB7
:10590000D6018E2F20E2552309F1992329F0D601E3
:105910009C93C60101966C0196012D5F3F4FE2FEFC
:105920001BC089E4D6018C938EE411968C93119759
:1059300086E412968C93D9018E2F90E2882309F485
:10594000B5CF9D938150FACF2D9381508111FCCF1B
:10595000CE0ED11CE0E0D9CF89E6D6018C938EE63D
:1059600011968C93119786E6E4CF9B0177FF02C0D6
:1059700030E020E0A1E0B0E0911102C0B0E0A0E092
:10598000F9013196AE0FBF1F8B2C912CBB2009F46F
:1059900061C05401EFEFAE1ABE0AAA0DBB1DFA1684
:1059A0001B0619F014F04F2D4A1B511188C0E3FC5F
:1059B00059C07601A42FB0E2A1114FC0C40ED11C72
:1059C000992309F45BC040E0D6011196F60190835B
:1059D0006D01552309F448C0012F060F9A81582FF5
:1059E000507184FF03C0913309F4015010160CF07C
:1059F00047C0093008F008E0EEE2FE2E5B01A01A75
:105A0000B10885019194819491082F3F320729F4C0
:105A1000D601FC92F60131966F016217730794F17B
:105A2000021713077CF5DB01A21BB30BAA24A39476
:105A3000B12CAC0EBD1EAA0DBB1D11968C91215030
:105A40003109D601119628153905F4F0F601808345
:105A50006D01DBCFB12CA12CA0CFF701B1937F0159
:105A6000A150AACF9111B0CFD601942F50E302C01C
:105A70005D9391509111FCCFC40ED11C40E0ACCF8E
:105A800001E0BACF80E3DBCF6217730731F49633BE
:105A900088F4953311F4552369F0F6018083FD01F4
:105AA000842F90E2811108C0A40FB11D1C9290E0D8
:105AB00080E002CF81E3F1CF91938150F3CF911138
:105AC00083CF8ACF283008F027E03327DA01990FF7
:105AD000311D87FD916000966105710539F43260D2
