:100000000C94C4060C94EC060C94EC060C94EC06D0
:100010000C94EC060C94EC060C94EC060C94EC0698
:100020000C94EC060C94EC060C94EC060C94EC0688
:100030000C94EC060C94EC060C94EC060C94EC0678
:100040000C945E150C94EC060C942C150C9406156F
:100050000C94EC060C94EC060C94EC060C94EC0658
:100060000C94EC060C94EC0600407A10F35A00A0B5
:10007000724E18090010A5D4E80000E87648170071
:1000800000E40B54020000CA9A3B000000E1F505B1
:10009000000080969800000040420F000000A086FB
:1000A00001000000102700000000E803000000002D
:1000B0006400000000000A000000000001000000D1
:1000C00000002C76D888DC674F0823DFC1DFAE59EB
:1000D000E1B1B796E5E3E453C63AE651997696E87E
:1000E000E6C28426EB898C9B62ED407C6FFCEFBC02
:1000F0009C9F40F2BAA56FA5F490055A2AF75C932D
:100100006B6CF9676DC11BFCE0E40D47FEF520E662
:10011000B500D0ED902E0300943577050080841E45
:10012000080000204E0A000000C80C333333330FA0
:10013000986E12831141EF8D2114893BE65516CF3D
:10014000FEE6DB18D1844B381BF77C1D901DA4BB49
:10015000E424203284725E228100C9F124ECA1E5FE
:100160003D277F1F8207840684068407827F1882CA
:1001700007840684068407827F20278E0F900D92C5
:100180000D9001800881018E018206831084048510
:100190000E8504850E8504850E8504850E850485EF
:1001A0000E8504850E8504850E8504850E850485DF
:1001B0000E8504850E8504850E8504850E850485CF
:1001C0000E85048410840482028E028204800292CE
:1001D0000280069609940C9002811B83198519856B
:1001E000198519851985198519851985198519851F
:1001F00019851985198519851A830B8E01810B9034
:100200000D920D900F8E28278E0F900D920D90015C
:10021000800881018E01820683108404850E850486
:10022000850E8504850E8504850E8504850E85045E
:10023000850E8504850E8504850E8504850E85044E
:10024000850E8504850E8504850E8504850E85043E
:100250008410840482028E0282048002920280064C
:100260009606800194078201900281048411830420
:10027000850E8504850E8504850E8504850E85040E
:10028000850E8504850E8504850E8504850E8504FE
:10029000850E8504850E8504850E8504850E8504EE
:1002A000850E8504850E85058310830781018E01E7
:1002B000810B900D920D900F8E28278E0F900D922E
:1002C0000D9001800C8E01821B841985198519857A
:1002D000198519851985198519851985198519852E
:1002E000198519851A841C821E805D811B831985DE
:1002F000198519851985198519851985198519850E
:10030000198519851985198519851A831C817F24FA
:10031000278E0F900D920D900B81018E0B831A8505
:1003200019851985198519851985198519851985DD
:10033000198519851985198519841A82028E0A80F2
:1003400002920A9606800194078201900281048439
:10035000118304850E8504850E8504850E8504852C
:100360000E8504850E8504850E8504850E8504851D
:100370000E8504850E8504850E8504850E8504850D
:100380000E8504850E8504850E85058310830781FF
:10039000018E01810B900D920D900F8E28278E0FEC
:1003A000900D920D900B81018E0B831A8519851982
:1003B000851985198519851985198519851985194D
:1003C000851985198519841A82028E0A8002920A7B
:1003D0009609940C9002811B83198519851985193A
:1003E000851985198519851985198519851985191D
:1003F00085198519851A830B8E01810B900D920D3D
:10040000900F8E287F198008811282068310840441
:10041000850E8504850E8504850E8504850E85046C
:10042000850E8504850E8504850E8504850E85045C
:10043000850E8504850E8504850E8504850E85044C
:10044000850E85048410840482028E028204800258
:10045000920280069609940C9002811B83198519DB
:10046000851985198519851985198519851985199C
:100470008519851985198519851A831C817F24277B
:100480008E0F900D920D9001800C8E01821B8419AD
:10049000851985198519851985198519851985196C
:1004A0008519851985198519851A840A8E0282088D
:1004B000920280069609940C9002811B831985197B
:1004C000851985198519851985198519851985193C
:1004D0008519851985198519851A830B8E01810B5C
:1004E000900D920D900F8E28278E0F900D920D90EB
:1004F00001800C8E01821B84198519851985198547
:1005000019851985198519851985198519851985FB
:1005100019851A840A8E0282089202800696068045
:1005200001940782019009841A8519851985198516
:1005300019851985198519851985198519851985CB
:10054000198519851A831C81018E0F900D920D90CB
:100550000F8E287F19801D821B84198519851985A6
:10056000198519851985198519851985198519859B
:10057000198519851B831D811E805D811B8319854B
:10058000198519851985198519851985198519857B
:10059000198519851985198519851A831C817F2468
:1005A000278E0F900D920D9001800881018E01829F
:1005B0000683108404850E8504850E8504850E85CA
:1005C00004850E8504850E8504850E8504850E85BB
:1005D00004850E8504850E8504850E8504850E85AB
:1005E00004850E8504850E8504841084048214829B
:1005F0000480188024801E82158104841183048560
:100600000E8504850E8504850E8504850E8504857A
:100610000E8504850E8504850E8504850E8504856A
:100620000E8504850E8504850E8504850E8504855A
:100630000E8504850E85058310830781018E018157
:100640000B900D920D900F8E287F7F7F7B82078409
:10065000068406840782107F7F7F7F7F278E0E921D
:100660000A9609940C907F7F7F7F7F477F7F7F7FF3
:100670003F0C0C0C0C0C0C0C0C0C0C0C0C0C200C73
:100680000C202020202020202020200C0C0C0C0CE2
:100690000C0C0C0C0C0C0C0C0C0C0C0C0C0C0C0C9A
:1006A0000C0C0C0C0C0C0C0C0C0C0C0C0C0C0C0C8A
:1006B0000C0C0C0C0C0C0C0C0C0C0C0C0C0C0C0C7A
:1006C0000C0C0C0C0C0C0C0C0C0C0C0C0C0C0C0C6A
:1006D0000C6C066C066C066C066C066C066C066C84
:1006E000066C066C066C066C066C06570649066CB2
:1006F00006A0055305E8047F0404049D031003BA13
:100700000207027A0162016C066C066C066C066CCC
:10071000066C066C066C066C066C066C066C066C49
:10072000066C066C066C066C066C066C066C066C39
:10073000066C066C066C066C066C066C066C066C29
:10074000066C066C066C066C066C066C066C066C19
:10075000066C066C066C066C066C066C066C066C09
:10076000066C066C066C066C066C066C066C066CF9
:10077000066C066C066C066C066C066C066C066CE9
:10078000066C066C066C066C066C066C066C066CD9
:100790000600000000003E5B4F5B3E3E6B4F6B3E31
:1007A0001C3E7C3E1C183C7E3C181C577D571C1C74
:1007B0005E7F5E1C00183C1800FFE7C3E7FF0018CF
:1007C000241800FFE7DBE7FF30483A060E262979B8
:1007D0002926407F050507407F05253F5A3CE73C19
:1007E0005A7F3E1C1C08081C1C3E7F14227F2214CA
:1007F0005F5F005F5F06097F017F006689956A6021
:100800006060606094A2FFA29408047E0408102037
:100810007E201008082A1C08081C2A08081E101030
:1008200010100C1E0C1E0C30383E3830060E3E0EDA
:1008300006000000000000005F0000000700070045
:10084000147F147F14242A7F2A122313086462362B
:10085000495620500008070300001C2241000041B7
:10086000221C002A1C7F1C2A08083E0808008070F1
:100870003000080808080800006060002010080424
:10088000023E5149453E00427F4000724949494677
:100890002141494D331814127F1027454545393CF5
:1008A0004A494931412111090736494949364649E2
:1008B00049291E0000140000004034000000081404
:1008C000224114141414140041221408020159097D
:1008D000063E415D594E7C1211127C7F49494936D2
:1008E0003E414141227F4141413E7F494949417F4B
:1008F000090909013E414151737F0808087F004101
:100900007F41002040413F017F081422417F404049
:1009100040407F021C027F7F0408107F3E4141411E
:100920003E7F090909063E4151215E7F091929468A
:10093000264949493203017F01033F4040403F1FA0
:100940002040201F3F4038403F63140814630304D5
:100950007804036159494D43007F41414102040835
:100960001020004141417F04020102044040404008
:1009700040000307080020545478407F284444383E
:100980003844444428384444287F38545454180088
:10099000087E090218A4A49C787F08040478004407
:1009A0007D40002040403D007F1028440000417FF2
:1009B00040007C047804787C08040478384444447B
:1009C00038FC1824241818242418FC7C0804040873
:1009D000485454542404043F44243C4040207C1C8C
:1009E0002040201C3C4030403C44281028444C907F
:1009F00090907C4464544C440008364100000077D9
:100A00000000004136080002010204023C262326B1
:100A10003C1EA1A161123A4040207A3854545559E5
:100A2000215555794121545478412155547840201D
:100A3000545579400C1E5272123955555559395436
:100A400054545939555454580000457C41000245CE
:100A50007D420001457C40F0292429F0F02825281A
:100A6000F07C545545002054547C547C0A097F493D
:100A700032494949323248484832324A4848303A85
:100A80004141217A3A42402078009DA0A07D39441E
:100A90004444393D4040403D3C24FF2424487E49A5
:100AA00043662B2FFC2F2BFF0929F620C0887E09D7
:100AB0000320545479410000447D413048484A3273
:100AC000384040227A007A0A0A727D0D19317D265B
:100AD00029292F28262929292630484D4020380841
:100AE00008080808080808382F10C8ACBA2F1028C2
:100AF00034FA00007B000008142A142222142A145D
:100B000008AA005500AAAA55AA55AA000000FF008D
:100B1000101010FF00141414FF001010FF00FF103D
:100B200010F010F0141414FC001414F700FF00006F
:100B3000FF00FF1414F404FC141417101F10101FEE
:100B4000101F1414141F00101010F0000000001FDC
:100B5000101010101F10101010F010000000FF10E7
:100B60001010101010101010FF10000000FF1400E3
:100B700000FF00FF00001F10170000FC04F4141415
:100B80001710171414F404F40000FF00F7141414E1
:100B900014141414F700F7141414171410101F1061
:100BA0001F141414F4141010F010F000001F101F84
:100BB0000000001F14000000FC140000F010F010F2
:100BC00010FF10FF141414FF141010101F00000069
:100BD00000F010FFFFFFFFFFF0F0F0F0F0FFFFFF6D
:100BE0000000000000FFFF0F0F0F0F0F38444438C4
:100BF000447C2A2A3E147E02020606027E027E02FF
:100C000063554941633844443C04407E201E20061D
:100C1000027E020299A5E7A5991C2A492A1C4C725A
:100C200001724C304A4D4D303048784830BC625AE1
:100C3000463D3E494949007E0101017E2A2A2A2A71
:100C40002A44445F444440514A444040444A51404D
:100C50000000FF0103E080FF000008086B6B08360E
:100C600012362436060F090F06000018180000007F
:100C70001010003040FF0101001F01011E00191D6E
:100C80001712003C3C3C3C00000000000000000843
:100C90000002010000030407000000000000000043
:100CA00015EF03038002CF0300C130ED046403128B
:100CB00081E803850078CB05392C003402F7012048
:100CC000EA020000C00123C10110C5023E28C7018D
:100CD000863601483A0155B1020018B6030882274A
:100CE000F20100260101E00F0F312B0C0E084EF12E
:100CF000370710030E0900E10F000E14031107312E
:100D0000C148080F0C31360F11807829004C43443C
:100D100020496E697469616C697A6564000000003D
:100D200000000000000008000000000000000000BB
:100D300000000000000000000000000000000000B3
:100D4000D106710630000000000000000000250000
:100D500028002B0000000000240027002A000404C3
:100D60000404040404040202020202020303030353
:100D7000030301020408102040800102040810202F
:100D8000010204081020A81511241FBECFEFD8E0DF
:100D9000DEBFCDBF13E0A0E0B1E0E0E4F0E602C0CA
:100DA00005900D92A632B107D9F724E0A6E2B3E090
:100DB00001C01D92A036B207E1F716E0C4ECD6E000
:100DC00004C02197FE010E94FB2FC33CD107C9F745
:100DD0000E941E160C941E300C94000090E0FC0142
:100DE000EE58F24F2491825A924FFC01849188234D
:100DF00099F090E0880F991FFC01EC5AF24FA591F1
:100E0000B491FC01E65BF24F859194918FB7F89411
:100E1000EC91E22BEC938FBF08959CB520913C049C
:100E20002CBD8EBD00000DB407FEFDCF9CBD089506
:100E3000289A29980E940D07299A08959DB59093A4
:100E40003D04289829980E940D07299A0895DC01ED
:100E5000ED91FC910190F081E02D0994AF92BF9249
:100E6000CF92DF92EF92FF920F931F93CF93DF9376
:100E70006C017B018B01040F151FEB015E01AE18A5
:100E8000BF08C017D10759F06991D601ED91FC91C7
:100E90000190F081E02DC6010995892B79F7C501F4
:100EA000DF91CF911F910F91FF90EF90DF90CF9046
:100EB000BF90AF900895FC01538D448D252F30E0F5
:100EC000842F90E0821B930B541710F0CF96089557
:100ED00001970895FC01918D828D981761F0A28D84
:100EE000AE0FBF2FB11D5D968C91928D9F5F9F734A
:100EF000928F90E008958FEF9FEF0895FC01918D00
:100F0000828D981731F0828DE80FF11D858D90E06C
:100F100008958FEF9FEF0895FC01918D228D892F09
:100F200090E0805C9F4F821B91098F7399270895F1
:100F300088E993E00E948C0721E0892B09F420E0E6
:100F4000822F089580E090E0892B29F00E94980775
:100F500081110C9400000895FC01A48DA80FB92FF5
:100F6000B11DA35ABF4F2C91848D90E001968F73D1
:100F70009927848FA689B7892C93A089B1898C91F0
:100F8000837080648C93938D848D981306C002883F
:100F9000F389E02D80818F7D80830895EF92FF9209
:100FA0000F931F93CF93DF93EC0181E0888F9B8D8C
:100FB0008C8D98131AC0E889F989808185FF15C046
:100FC0009FB7F894EE89FF896083E889F989808169
:100FD0008370806480839FBF81E090E0DF91CF9138
:100FE0001F910F91FF90EF900895F62E0B8D10E05A
:100FF0000F5F1F4F0F731127E02E8C8D8E110CC0C9
:101000000FB607FCFACFE889F989808185FFF5CF13
:10101000CE010E94AC07F1CFEB8DEC0FFD2FF11D3F
:10102000E35AFF4FF0829FB7F8940B8FEA89FB8950
:1010300080818062CFCFCF93DF93EC01888D8823AE
:10104000B9F0AA89BB89E889F9898C9185FD03C02B
:10105000808186FD0DC00FB607FCF7CF8C9185FF10
:10106000F2CF808185FFEDCFCE010E94AC07E9CFA2
:10107000DF91CF91089590E0FC01E457F34F249164
:10108000FC01EE58F24F3491FC01E25AF24FE49128
:10109000EE23C9F0222339F0233001F1A8F42130E6
:1010A00019F1223029F1F0E0EE0FFF1FE65BF24F5D
:1010B000A591B4918FB7F894EC91611126C0309549
:1010C0003E233C938FBF08952730A9F02830C9F004
:1010D000243049F7809180008F7D03C0809180008B
:1010E0008F7780938000DFCF84B58F7784BDDBCF8F
:1010F00084B58F7DFBCF8091B0008F778093B00057
:10110000D2CF8091B0008F7DF9CF3E2BDACF1F93E5
:10111000CF93DF93182FEB010E94EE06209739F44E
:1011200060E0812FDF91CF911F910C943B08CF3F5E
:10113000D10511F461E0F5CFE12FF0E0E457F34F72
:10114000E491E33031F140F4E130B1F0E230E1F02C
:10115000C038D1057CF7E4CFE73029F1E83059F108
:10116000E430B1F780918000806280938000D0935A
:101170008B00C0938A0004C084B5806884BDC7BD5D
:10118000DF91CF911F91089584B5806284BDC8BD61
:10119000F7CF80918000806880938000D093890091
:1011A000C0938800EDCF8091B00080688093B0003C
:1011B000C093B300E5CF8091B00080628093B0000F
:1011C000C093B400DDCF3FB7F89480912E03909187
:1011D0002F03A0913003B091310326B5A89B05C021
:1011E0002F3F19F00196A11DB11D3FBFBA2FA92FA6
:1011F000982F8827BC01CD01620F711D811D911DA3
:1012000042E0660F771F881F991F4A95D1F708950E
:101210008F929F92AF92BF92CF92DF92EF92FF9206
:101220006B017C010E94E3084B015C01C114D104F5
:10123000E104F104B9F00E94E308681979098A0908
:101240009B09683E73408105910580F321E0C21A35
:10125000D108E108F10888EE880E83E0981EA11CF1
:10126000B11CE4CFFF90EF90DF90CF90BF90AF9094
:101270009F908F9008952FB7F89460912A037091F2
:101280002B0380912C0390912D032FBF08950F9372
:101290001F93FC01289829988AE28EBD009600963B
:1012A000009601D001C00895289A7EBD00000096E6
:1012B00001D001C008958FEF9FEF978F868F6EBD8D
:1012C0000000009601D001C008958485958582179D
:1012D000930781F03EBD0000009601D001C0089543
:1012E0000000358724872EBD00000096009601D0AF
:1012F00001C0089528988BE28EBD00960096009656
:1013000001D001C00895289A5EBD0000009601D06A
:1013100001C008958FEF9FEF958F848F4EBD000021
:10132000009601D001C008958685978580179107A2
:1013300081F01EBD0000009601D001C0089500009C
:10134000178706870EBD00000096009601D001C0E9
:10135000089528988CE28EBD00000096009601D07A
:1013600001C00895289A1F910F910895EF92FF925E
:101370000F931F93CF93DF93EA01F22EE32E9C018C
:10138000240F351F215031098B01AB01BC0186E3CD
:1013900094E00E944709209771F0EEBC02D001D082
:1013A00001C008950000FEBC0096009601D001C067
:1013B0000895219791F7299ADF91CF911F910F916D
:1013C000FF90EF9008952F923F924F925F926F920D
:1013D0007F928F929F92AF92BF92CF92DF92EF92C5
:1013E000FF920F931F93CF93DF9300D000D0CDB720
:1013F000DEB79A8389838B01F8E14F2E512C612C43
:10140000712CAA24A394B12CBCEFCB2EDD24DA944A
:10141000ED2CFD2C22E030E03C832B83912C812CA1
:1014200030E020E0A501B8018B819C81681B790B1D
:1014300029803A8028183908C1010E94B60930E095
:1014400020E0A5016B817C81600F711FC1010E94AA
:10145000B609F7FC19C081E090E02B813C81821B2A
:10146000930B092E000CAA0BBB0BE4E0880F991F0D
:10147000AA1FBB1FEA95D1F7C80ED91EEA1EFB1E94
:10148000215031093C832B83C40CD51CE61CF71C6E
:101490003FEF831A930A82E0A80EB11C90E1490E37
:1014A000511C611C711C2B813C81281539050CF0E5
:1014B000B7CF68E1462E512C612C712C7CEF872E22
:1014C00099249A94A92CB92C82E090E09C838B8378
:1014D000F12CE12CCB80DC80CC0CDD1C9FEFC91AF9
:1014E000D90A30E020E0A601B8016E197F092980F1
:1014F0003A808B819C81281A390AC1010E94B60961
:1015000030E020E0A601B701600F711FC1010E9409
:10151000B609B7FC19C081E090E02B813C81821BA9
:10152000930B092E000CAA0BBB0B44E0880F991FEC
:10153000AA1FBB1F4A95D1F7880E991EAA1EBB1E73
:10154000215031093C832B83840C951CA61CB71CAD
:101550003FEFE31AF30A80E1480E511C611C711C35
:101560002B813C812E153F050CF0B4CF0F900F90CE
:101570000F900F90DF91CF911F910F91FF90EF90FF
:10158000DF90CF90BF90AF909F908F907F906F90A3
:101590005F904F903F902F900895EF92FF920F939E
:1015A0001F93CF93DF93EA01F22EE32E8B01040FFA
:1015B000151F015011099C01AB01BC0186E394E0A9
:1015C0000E944709209771F0EEBC02D001D001C003
:1015D00008950000FEBC0096009601D001C0089559
:1015E000219791F7299ADF91CF911F910F91FF9049
:1015F000EF90089530E020E043E050E06DEE70E0C1
:101600008EE391E00E94CD0A30E020E041E050E01E
:101610006EEE70E08FE391E00E94CD0A30E020E0B2
:1016200043E050E06DEE70E08EE391E00E94CD0A61
:1016300030E020E041E050E06EEE70E08DE391E0BC
:101640000E94CD0A30E020E043E050E06DEE70E013
:101650008EE391E00C94CD0ACF93DF93EC019C01D3
:101660004BEB50E06DE870E08CE790E00E94B6092B
:101670009E014BEB50E06BE970E08CE790E00E943C
:10168000B6099E014FE050E06DE870E08CE790E015
:101690000E94CD0A9E014FE050E06DE870E086E3C5
:1016A00091E0DF91CF910C94CD0ACF92DF92EF922F
:1016B000FF920F931F93CF93DF936901E8018A0193
:1016C0000C0F1D1F015011099B012C0D3D1D2150B8
:1016D00031090E944709219790F0C601009771F0E7
:1016E000FEBC02D001D001C008950000EEBC0096FF
:1016F000009601D001C00895019791F7ECCF299A87
:10170000DF91CF911F910F91FF90EF90DF90CF90DD
:101710000895EF92FF920F931F93E6E3F4E004899C
:101720001589228933897C0150E040E070E060E057
:10173000CF010E94550B1F910F91FF90EF900895DC
:101740002F923F924F925F926F927F928F929F92D1
:10175000AF92BF92CF92DF92EF92FF920F931F93BF
:10176000CF93DF93CDB7DEB767970FB6F894DEBFA0
:101770000FBECDBF4C015A0138872F83DC0156962E
:101780002D903C9057970130110509F0A4C1529655
:101790008D919C915397481759070CF07AC0549635
:1017A0008D919C915597281739070CF072C091962E
:1017B000BC91B9876B2E712CCA01FB2FE6E0BE9F4E
:1017C000800D911D1124181619060CF062C09301AA
:1017D000A3E0220F331FAA95E1F74F815885240F0C
:1017E000351F121613060CF054C0D4015896CD9034
:1017F000DC90B5E06B9F70011124F13009F072C0EC
:10180000C214D30409F46EC08A01085F1F4F95010A
:101810002B5F3F4FB501C4010E944709DE011196BD
:1018200090E080E0B7016F56784FFB01E80FF91F99
:10183000E491ED93019685309105B9F71E823D2D17
:10184000432D88E091E061E070E06C0F7D1F6B5FDD
:101850007F4FFE01319621912923D1F10DB407FE6E
:10186000FDCF4EBD00000DB407FEFDCF2EBC6E17A0
:101870007F0789F7990F0DB407FEFDCF3EBD0DB46C
:1018800007FEFDCFCEBC815021F70DB407FEFDCF82
:10189000299AF40181A1F6E08F9FC0011124679677
:1018A0000FB6F894DEBF0FBECDBFDF91CF911F9171
:1018B0000F91FF90EF90DF90CF90BF90AF909F90EF
:1018C0008F907F906F905F904F903F902F900895F2
:1018D0000DB407FEFDCF3EBD00000DB407FEFDCFE9
:1018E000CEBCC5CF3A8ABB86AA86512C412CF701C3
:1018F000EF56F84FFC8BEB8BF5E0E0E04F1629F04C
:10190000EB89FC89E40DF51DE4912985213009F06E
:10191000B8C0A501440D551D052F30E020E0142D61
:101920001A0D6E2F70E0E0FF94C0D40152968D9195
:101930009C9153974817590708F08BC08F81988561
:10194000820F931F54960D90BC91A02D8A179B0770
:1019500008F07FC02998F401A68DB78DA417B507AC
:1019600009F426C02898FAE2FEBD0000009601D0D6
:1019700001C00895D4015F965C934E935E97289AB8
:101980000EBD02D001D001C0089500001EBD02D0DE
:1019900001D001C0089500000EBD02D001D001C0E9
:1019A000089500001EBD0000009601D001C00895FA
:1019B000F401A48DB58DA817B90709F429C028989A
:1019C000FBE2FEBD0000009601D001C00895D401E5
:1019D0005D969C938E935C97289A9EBD02D001D011
:1019E00001C008950000EF81E20FEEBD02D001D0EA
:1019F00001C0089500009EBD02D001D001C008952D
:101A00000000EEBD00000096009601D001C00895D0
:101A10002898BCE2BEBD00960096009601D001C099
:101A20000895289AEA89EEBD00960096009601D0A6
:101A300001C00895D4011D965C934E931C972EBC53
:101A40000000009601D001C00895F40197878687B1
:101A5000299A75956795E62F2F5F3F4F28303105FE
:101A600009F05FCF9FEF491A590AAA85BB85A60DD9
:101A7000B71DBB87AA87B6E04B16510409F03CCFCF
:101A800008CF2F8138853D872C8738E03E874E2F41
:101A900050E0598B488B7101E0FD04C0C214D3049F
:101AA00051F07601830193014C855D856A857B85C4
:101AB000C4010E94550BE889F989F595E7955E8583
:101AC00051505E878C859D85860D971D9D878C87DF
:101AD0005111DDCFC7CF6052710985E0809F900121
:101AE000819F300D1124F901E35EF24F85919491AD
:101AF000FB01EE0FFF1FE80FF91FC590D490F9010D
:101B0000E15EF24FE590F4906E0D7F1DFB01F491C4
:101B1000F9874F2F50E05F874E87F901EF5DF24F55
:101B2000E4910E2F10E0288A3A8A1EBC69856E9FC8
:101B30002001112491962C91919756968D919C910C
:101B400057975896ED90FC90213021F48E159F0503
:101B500009F0B0C08E159F0569F02E9F80011124F9
:101B6000B9852B9F900111244F815885B501C4017F
:101B70000E94550BF40131A0339CF02D1124FF8BF2
:101B80003A943C86712C612C232D30E03E8B2D8BBA
:101B9000641475040CF082C0F6018491FFEFCF1A33
:101BA000DF0A87FF77C08F778F5F8B8BC3016E85CE
:101BB0007F850E94C52F2C85222309F444C0D401BF
:101BC00091962C9130E0289F7001299FF00C389F4E
:101BD000F00C1124EA0CFB1C269FC001279F900DDE
:101BE000369F900D11242F803884280E391EBB8912
:101BF000BA87EA85E150EA87EF3F09F10DB407FEA5
:101C0000FDCF0D891E89020D131D2D893E892E0DD4
:101C10003F1DA101B701C4010E944709FC85FF23B4
:101C2000D1F08F89815008F10DB407FEFDCF2A89CC
:101C30002EBD0DB407FEFDCF38893EBDF3CF4B89D5
:101C4000640E711CA5CF7501E80EF91E2F80388433
:101C5000260E371ECCCF0DB407FEFDCF4A894EBDF0
:101C60000DB407FEFDCF58895EBDD40191962C912D
:101C7000822F90E0E80EF91EF5014985249FE00DC2
:101C8000F11D1124EE16FF060CF4B3CF280E391EF9
:101C90007501AFCF8F5F680E711C7ACF0DB407FE50
:101CA000FDCF299AD40191968C91B985B89FC00136
:101CB0001124F5CD8F819885080F191F0150110946
:101CC0002E853F852A0D3B1D21503109AC01B50100
:101CD000C4010E944709141415040CF02CC096018D
:101CE0002F5F3F4FF601849187FF1DC08F778F5F75
:101CF00090E0481A590AD40156964C915697579637
:101D00005C91009771F05EBD02D001D001C00895D2
:101D100000004EBD0096009601D001C008950197C5
:101D200091F76901D8CF8F5F90E0481A590AF40102
:101D3000408D518DE6CF0DB407FEFDCFB2CF5F923F
:101D40006F927F928F929F92AF92BF92CF92DF92CB
:101D5000EF92FF920F931F93CF93DF934A01790184
:101D60005090580422E02093580445E04E9D900185
:101D70004F9D300D1124A7014250510947305105A4
:101D800008F05FC0F901E15EF24F45915491405275
:101D90005109DC01D0E0C0E0ED91EE2351F08A0161
:101DA0000E0F111DE7FD1A95F801E491CE0FD11D1C
:101DB000F3CFE0915704EC9FA001ED9F500D11244B
:101DC000F901EF5DF24FE491C0905704EC9D600182
:101DD0001124EB01C41BD50BD7FF02C0D0E0C0E03B
:101DE0002091480430914904BE01640F751F2617E5
:101DF000370718F4E901C41BD50B20914A04309130
:101E00004B04A4014C0D5D1D2417350718F449013E
:101E10008C189D083C01B12CA12CF30161913F016C
:101E2000662391F0AE014A0D5B1D062E000C770B68
:101E30008701940186E394E00E94A00BA80EB91ECE
:101E4000ECCF50E040E0BCCF809146049091470435
:101E5000A816B906ECF4E0904E04F0904F042091DF
:101E60004C0430914D042E153F0591F0CA0DDB1D39
:101E7000C817D9070CF4CE019C012A193B09BE01F1
:101E8000681B790B8601A40186E394E00E94550B40
:101E900050925804C501DF91CF911F910F91FF908F
:101EA000EF90DF90CF90BF90AF909F908F907F90FA
:101EB0006F905F9008950F931F93CF93DF93DC0192
:101EC000362F6D3009F438C090964C919097042FBE
:101ED00010E025E0429FC0011124FC01E15EF24FB9
:101EE000C591D49170E0FB01B097EC0FFD1F2491D8
:101EF0008F5D924FFC018491413029F1E22FF0E097
:101F000090E091964C91919750E0489FE001499F55
:101F1000D00D589FD00D11241A968D919C911B972E
:101F20003A30B1F48C0F9D1F1B969C938E931A9799
:101F300019961C921E92189781E090E0DF91CF9144
:101F40001F910F91089588E090E0E6E0F0E0D9CF8E
:101F500094962C9194972223F1F04E9F90014F9FDD
:101F6000300D5E9F300D112418964D915C9119979C
:101F7000240F351F52964D915C91539724173507C6
:101F800050F08C0F9D1F1B969C938E931A97199659
:101F90001C921E921897ED012A853B85488559852C
:101FA000CD010E94A00B28853985820F931F998748
:101FB0008887C2CF089590E080E008958EBD00002C
:101FC0000DB407FEFDCF8EB50895CF93CFB7F8942B
:101FD00080912803811124C0E8E6FDE08491ECE7BC
:101FE000FDE09491E82FF0E0EE0FFF1FEC5AF24F66
:101FF000A591B491EC91E92321F461E08AE00E947B
:102000003B088AE00E94EE068CB580618CBD8CB5E1
:1020100080648CBD8DE00E94EE068BE00E94EE068F
:10202000809128038F5F80932803CFBFCF910895BD
:10203000823429F08E3429F086E00C948708B901A7
:10204000FBCFBA01F9CF61E0809135040C943B08D5
:1020500080E58CBD81E08DBD60E0809135040C94FD
:102060003B081F93CF93DF93182FD62FC42F0E94C6
:10207000281085E00E94DE0F812F0E94DE0F8D2F39
:102080000E94DE0F8C2F0E94DE0FDF91CF911F91F7
:102090000C942310FF920F931F93CF93DF93C82FBD
:1020A000F62E172F042F0E94281083E00E94DE0FC7
:1020B0008C2F0E94DE0FCF2DD12F0C0F1D2F111D45
:1020C000C017D10729F080E00E94DE0F8993F8CF76
:1020D000DF91CF911F910F91FF900C942310CF931C
:1020E000C82F0E94281083E00E94DE0F8C2F0E94D0
:1020F000DE0F80E00E94DE0FC82F0E9423108C2F7D
:10210000CF910895BF92CF92DF92EF92FF920F93FB
:102110001F93CF93DF9300D000D01F92CDB7DEB7CF
:102120008C01000F111F000F111FF801E05FFE4F1F
:1021300045E0BE016F5F7F4F81810E944A108A8116
:10214000C98098E0C99E60011124282F30E055E035
:10215000359527955A95E1F7C20ED31E0D2C000C2C
:10216000EE08FF0883FF20C092E0CC0CDD1CEE1CC3
:10217000FF1C9A95D1F78370C80ED11CE11CF11C8D
:10218000FE2CED2CDC2CCC248B81C80ED11CE11C48
:10219000F11CFE2CED2CDC2CCC248C81C80ED11C27
:1021A000E11CF11C6894F7F88D818F70B82EE8E07F
:1021B00081E090E0EB1528F1F801E05FFE4F8081AF
:1021C0000E946F1083FF02C06894F6F8C0928803E3
:1021D000D0928903E0928A03F0928B03B0928C0331
:1021E000005F1E4F4B2D60E973E0F80182810E9471
:1021F0004A1040E0F80163818CE20E94311090E0C7
:1022000080E00F900F900F900F900F90DF91CF9183
:102210001F910F91FF90EF90DF90CF90BF900895A6
:10222000CF92DF92EF92FF92CF93C82F482F60EEAC
:102230008FE00E9431100E943B096B017C012AE073
:10224000C20ED11CE11CF11C0E943B096C157D05DE
:102250008E059F0580F48EE00E946F10807EC8136B
:10226000F3CF81E091E0892790E0CF91FF90EF904C
:10227000DF90CF90089580E0F5CFCF930E94281093
:1022800080EA0E94DE0F80E00E94DE0FC82F0E94CD
:10229000231090E080E0C0FD04C0C1FF05C081E0D4
:1022A00090E0CF910C94821085E090E0CF9108955A
:1022B000FF920F931F93CF93DF93C82FF62E172F04
:1022C000042F0E94281082E00E94DE0F8C2F0E94B3
:1022D000DE0FCF2DD12F0C0F1D2F111DC017D107D1
:1022E00021F089910E94DE0FF9CFDF91CF911F91EC
:1022F0000F91FF900C942310CF93DF93D82FC62F0C
:102300000E94281082E00E94DE0F8D2F0E94DE0FB7
:102310008C2F0E94DE0FDF91CF910C9423108F92AF
:102320009F92AF92BF92CF92DF92EF92FF920F9364
:102330001F93CF93DF93CDB7DEB763970FB6F894B3
:10234000DEBF0FBECDBF86E0E1E0F1E0DE011E960C
:1023500001900D928A95E1F75E018EE0A80EB11C06
:102360004E01E4E18E0E911CF501E190F1905F01C8
:102370008701000F111FF801EE0DFF1DE95FFE4FF1
:10238000D0808D2D0E946F1083FD87C080917803CF
:1023900090917903A0917A03B0917B03AC01BD01C8
:1023A000442777FD4395552766277727242FAC01CF
:1023B000BD01442755276627707488248A94982C79
:1023C000A82CFFE1BF2E211106C088248A94E7E0E3
:1023D0009E2EA12CB12C88219921AA21BB21222338
:1023E00009F44DC08C839B83CD01AA27BB27282FDE
:1023F00023702860382F330F330F330F307E232B99
:102400002A8335E0969587953A95E1F78983C090C0
:102410007C038C2D452B462B472B09F080648D8344
:102420004C2D50E060E873E0CE0106960E94153016
:1024300045E04C0D0E0D1F1DF801E95FFE4FBE017A
:102440006F5F7F4F81810E94581148E068E08D2DB9
:102450000E94311090E080E063960FB6F894DEBFE2
:102460000FBECDBFDF91CF911F910F91FF90EF90E5
:10247000DF90CF90BF90AF909F908F9008959C0178
:1024800093E0369527959A95E1F729838295880FF1
:10249000807E8A831C821B82BACFA814B90409F0FB
:1024A00063CF84E090E0D8CF6F927F928F929F921B
:1024B000AF92BF92CF92DF92EF92FF920F931F9352
:1024C000CF93DF93EC016B013A0179010E943B0944
:1024D0004B015C01CE01DD0FAA0BBB0B809378038F
:1024E00090937903A0937A03B0937B0384E0809365
:1024F0007C0383E08093800382E280938103609277
:102500008203E09283030E948F110E943D11892B68
:10251000F1F580918803909189038C159D0509F050
:1025200042C080918C0390E025E030E0013011053D
:1025300011F026E030E082179307A9F5809191030E
:10254000823689F5809192038615170461F5809192
:1025500093038E151F0439F58091940390E00230A7
:10256000110531F4982F882720919503820F911D32
:10257000DF91CF911F910F91FF90EF90DF90CF905F
:10258000BF90AF909F908F907F906F9008950E9422
:102590003B09681979098A099B096233710581052C
:1025A000910508F4B2CF90E080E0E2CFFB0101900A
:1025B0000020E9F73197AF01461B570BDC01ED9185
:1025C000FC910280F381E02D09948F929F92AF924B
:1025D000BF92EF92FF920F931F93CF93DF93CDB7EC
:1025E000DEB7A1970FB6F894DEBF0FBECDBF7C015A
:1025F000FA01CB0119A2223008F42AE08E010F5D06
:102600001F4F822E912CB12CA12CBF01A50194014A
:102610000E94D92FF901CA016A300CF5605DD8011A
:102620006E938D01232B242B252B79F790E080E0EE
:10263000109721F0BD01C7010E94D612A1960FB6D6
:10264000F894DEBF0FBECDBFDF91CF911F910F91E8
:10265000FF90EF90BF90AF909F908F900895695C2E
:10266000DECFCF92DF92EF92FF920F931F93CF9323
:10267000DF932A30310501F52AE077FF1DC06A019A
:102680007B01EC016DE20E9427078C01442755274E
:10269000BA014C195D096E097F092AE0CE010E943A
:1026A000E512800F911FDF91CF911F910F91FF9045
:1026B000EF90DF90CF900895DF91CF911F910F9110
:1026C000FF90EF90DF90CF900C94E5129A01AB0150
:1026D000770F660B770B0C943113CF93DF93BC010C
:1026E00088E993E00E94D612EC0166E371E088E984
:1026F00093E00E94D6128C0F9D1FDF91CF91089519
:102700004F925F926F927F928F929F92AF92BF9201
:10271000CF92DF92EF92FF92CF93DF936B017C0118
:10272000D42FAC019B010E94C02F69E371E081119D
:1027300026C026013701E89477F82FEF3FEF4FE7E7
:102740005FE7C301B2010E94C02F81110CC02FEFBF
:102750003FEF4FE75FE7C301B2010E94F62D6DE343
:1027600071E0181664F02FEF3FEF4FE75FE4C70109
:10277000B6010E944E2F1816A4F461E471E086E3BE
:1027800094E0DF91CF91FF90EF90DF90CF90BF90DA
:10279000AF909F908F907F906F905F904F900C9430
:1027A000D6122FEF3FEF4FE75FECC701B6010E9453
:1027B000F62D87FDE2CF20E030E0A901C701B60188
:1027C0000E94F62D912C812C87FF0AC06DE286E3D2
:1027D00094E00E9427074C01F7FAF094F7F8F09480
:1027E000CD2FA12C60E070E080E09FE3AD1640F4B7
:1027F00020E030E040E251E40E94FB2DA394F6CFAC
:10280000A70196010E948A2D2B013C010E946D2E8A
:102810005B016C012AE0BC01A50186E394E00E9403
:10282000E5127C01E80CF91CDD23D1F1C601B501EC
:102830000E949C2E9B01AC01C301B2010E94892D14
:102840004B015C016EE286E394E00E942707E80EEC
:10285000F91EC15028F120E030E040E251E4C5010A
:10286000B4010E94532F2B013C010E946D2E4B019D
:10287000B12CA12C2AE0B501A40186E394E00E94CA
:10288000E512E80EF91EC501B4010E949C2E9B01C1
:10289000AC01C301B2010E94892D4B015C01D9CF6B
:1028A000C701DF91CF91FF90EF90DF90CF90BF9065
:1028B000AF909F908F907F906F905F904F90089512
:1028C0000C94D6128F929F92AF92BF92CF92DF92CA
:1028D000EF92FF920F931F93DC014A015B016801A5
:1028E0007901E6E3F4E080E098EF978B868B118E18
:1028F000108E91E090A322E630E03187208726EE0B
:1029000030E03387228791A34AE050E0BD01CF0138
:102910000E94661365E471E086E394E00E9460140F
:102920002AE030E0B501A40186E394E00E9431136F
:102930000E943B099B01AC012C193D094E095F091E
:1029400069017A0166E471E088E993E00E9460140D
:102950002AE030E0B501A40188E993E00E94311338
:102960006BE471E088E993E00E946014D701C6012E
:1029700088199909AA09BB094C015D012AE030E0D8
:10298000BD01AC0188E993E00E94311363EF72E06E
:1029900088E993E00E9460142AE030E0B701A601C4
:1029A00088E993E00E94311366E371E088E993E0DF
:1029B0000E94D6126FE471E086E394E00E946014F6
:1029C0002AE030E0B501A40186E394E00E943113CF
:1029D00061E571E086E394E00E9460142AE030E053
:1029E000B701A60186E394E00E94311364EB71E025
:1029F00086E394E01F910F91FF90EF90DF90CF90CE
:102A0000BF90AF909F908F900C9460141F920F9284
:102A10000FB60F9211242F933F934F935F936F93B1
:102A20007F938F939F93AF93BF93EF93FF9388E927
:102A300093E00E94AC07FF91EF91BF91AF919F91FE
:102A40008F917F916F915F914F913F912F910F9057
:102A50000FBE0F901F9018951F920F920FB60F92F6
:102A600011242F938F939F93EF93FF93E091A803EB
:102A7000F091A9038081E091AE03F091AF0382FD54
:102A80001BC090818091B1038F5F8F732091B2033F
:102A9000821741F0E091B103F0E0E856FC4F958FCA
:102AA0008093B103FF91EF919F918F912F910F90A0
:102AB0000FBE0F901F9018958081F4CF1F920F9238
:102AC0000FB60F9211242F933F938F939F93AF9341
:102AD000BF9380912A0390912B03A0912C03B09176
:102AE0002D033091290323E0230F2D3758F501964C
:102AF000A11DB11D2093290380932A0390932B03DA
:102B0000A0932C03B0932D0380912E0390912F035B
:102B1000A0913003B09131030196A11DB11D8093A6
:102B20002E0390932F03A0933003B0933103BF91F2
:102B3000AF919F918F913F912F910F900FBE0F906A
:102B40001F90189526E8230F0296A11DB11DD2CF24
:102B5000CF93DF93E8E9F3E01382128288EE93E0EB
:102B6000A0E0B0E084839583A683B7838CE191E0F5
:102B70009183808385EC90E09587848784EC90E056
:102B80009787868780EC90E0918B808B81EC90E03A
:102B9000938B828B82EC90E0958B848B86EC90E01B
:102BA000978B868B118E128E138E148EC6E3D4E013
:102BB0001B821A828EE291E09983888360E087E02D
:102BC0000E943B0887E00E94EE06289A88E00E9457
:102BD000EE06299A89E00E94EE0680EF90E09B8B3A
:102BE0008A8B80E491E09D8B8C8B1BA219861886C2
:102BF0001B861A8621E028A329A38FEF9FEF9F8BC6
:102C00008E8B198E188E198A188A2CA31AA29D8F62
:102C10008C8F9F8F8E8F9D878C879F878E8782E872
:102C200090E09B8F8A8F0E94E50F8AE080933504A5
:102C30000E94EE06DF91CF910C942310CF93DF9387
:102C4000CDB7DEB7AA970FB6F894DEBF0FBECDBFE3
:102C5000789484B5826084BD84B5816084BD85B577
:102C6000826085BD85B5816085BD80916E00816083
:102C700080936E0010928100809181008260809329
:102C8000810080918100816080938100809180002B
:102C90008160809380008091B10084608093B10056
:102CA0008091B00081608093B00080917A00846050
:102CB00080937A0080917A00826080937A0080917C
:102CC0007A00816080937A0080917A008068809396
:102CD0007A001092C10086E00E94EE0670E060E08B
:102CE00086E00E948708E091A803F091A90382E0A2
:102CF0008083E091A403F091A5031082E091A603E4
:102D0000F091A70380E180831092B003E091AC03BF
:102D1000F091AD0386E08083E091AA03F091AB03CC
:102D2000808180618083E091AA03F091AB03808170
:102D300088608083E091AA03F091AB038081806872
:102D40008083E091AA03F091AB0380818F7D808323
:102D50000E94E50F8CB580933D048CB58C7F8CBDB3
:102D60008DB581608DBD8CB58F7D8CBD8CB5837F1D
:102D70008CBD8CB580933C0461E087E00E943B08E9
:102D800065E070E080E090E00E94080960E087E084
:102D90000E943B0864E170E080E090E00E94080936
:102DA00061E087E00E943B0866E970E080E090E027
:102DB0000E940809E0EAFCE0D49001EA1CE0DD2072
:102DC00009F432C0F80184910E941E075801F2E014
:102DD000AF0EB11CF8013196C4900C2D0F77750120
:102DE000102F115040F0F70184910E941807FFEF57
:102DF000EF1AFF0AF6CF0A0D1B2D111DC7FE12C0D8
:102E000078012FEFE21AF20AF801649170E090E085
:102E100080E06F3F21F464EF71E080E090E00E9479
:102E200008098701DA94CBCF81E08093590486E3C7
:102E30000E941E07E0915904E830E0F4F0E0ED5DF7
:102E4000F84E0C94FB2F2B172D1839183B183D18F2
:102E50003F184118431888E40E94180780EF90E05B
:102E6000909349048093480480E491E090934B044C
:102E700080934A04289829988AE28EBD009600968D
:102E8000009601D001C00895289A1EBC000000964B
:102E9000009601D001C00895109255041092540478
:102EA0001EBC0000009601D001C008958091480426
:102EB00090914904019790934304809342049EBDEE
:102EC00000960096009601D001C0089580914204BA
:102ED0008EBD00000096009601D001C0089528988C
:102EE0008BE28EBD00960096009601D001C0089539
:102EF000289A1EBC00000096009601D001C00895DB
:102F000010925304109252041EBC0000009601D08F
:102F100001C0089580914A0490914B0401979093C9
:102F20004504809344049EBD00960096009601D00F
:102F300001C00895809144048EBD00000096009663
:102F400001D001C00895299A8FEF9FEF9093530409
:102F500080935204909355048093540490934304B7
:102F60008093420490934504809344040DE01DE057
:102F7000F8016491662341F088E993E00E94CE074E
:102F80000F5F1F4F892BA1F766E371E088E993E09B
:102F90000E94D61290E080E00E94890B83E591E0C8
:102FA0000E946D130E94281080EC0E94DE0F0E9488
:102FB00023106AE070E080E090E00E9408098E0132
:102FC0000F5F1F4F8EE0D8011D928A95E9F74EE002
:102FD000B80180E30E9458114EE0B80180E40E94DD
:102FE00058114EE0B80180E50E94581160E080E67B
:102FF0000E947C1160E080E70E947C1163EA8BE212
:103000000E947C1144E064E680E60E94311040E0BA
:1030100060E680E70E94311080E80E941011892B41
:1030200061F460E08AE20E947C1160E989E20E941A
:103030007C1162E888E20E947C1180E00E941011FD
:10304000892B19F164E670E080E090E00E940809A5
:1030500086E691E00E946D13F0CF88E20E94180787
:1030600080E491E0909349048093480480EF90E0DD
:10307000FDCE88E8F1CE88EEF1CF88ECEDCE88E683
:10308000EDCF88E0E9CE88EAE9CF8FE791E00E94B2
:103090006D130E943B09603177428105910508F06C
:1030A000EFC010927303109272030E943B090091CB
:1030B0006D0310916E0320916F0330917003601BBC
:1030C000710B820B930B693C71058105910508F426
:1030D00011C10E943B0960936D0370936E0380934E
:1030E0006F0390937003B0906C03B0926B030E94D7
:1030F0003B096B017C0188EC96E0A0E0B0E0809396
:10310000780390937903A0937A03B0937B0385E0CF
:1031100080937C0388E48093800383E08093810321
:1031200082E28093820384ED809383038BE080931B
:1031300084030E948F110E943D11892B09F0B0C0B9
:1031400080918803909189038832964009F0B4C039
:1031500080918C03863009F0AFC080919003883451
:1031600009F0AAC080919203823609F0A5C080912F
:103170009303843D09F0A0C0809194038B3009F043
:103180009BC08091950390E021E08C010074112791
:1031900086FF20E020936C03B21609F4ABC0BB207D
:1031A00011F40C94BC2A0E943B09C0906703D09094
:1031B0006803E0906903F0906A036C197D098E0939
:1031C0009F09653873408105910518F081E080936F
:1031D00066030E943B0960936703709368038093C2
:1031E000690390936A03012B09F084C060E971E0E0
:1031F00088E993E00E9460146091660370E04AE001
:1032000050E088E993E00E94661366E371E088E984
:1032100093E00E94D612809172039091730321E093
:10322000209300014091660320916403309165036F
:10323000442309F44BC02230310509F040C01092FC
:103240006503109264031092660380916403909169
:103250006503E1E0F0E0009711F40C94ED2924E619
:1032600030E08130910511F40C94FF29029709F0A8
:1032700041C088EC90E090937303809372033AC04E
:1032800080917103811111CF81E08093710380934C
:103290000001E1E0F0E0F0937303E093720305CFE7
:1032A0000E943B096C197D098E099F0964367105DE
:1032B0008105910508F43FCF90E080E065CF2F5F56
:1032C0003F4F3093650320936403BDCF2115310533
:1032D00011F00C94E329009739F08430910511F432
:1032E0000C94DD290196C7CFA1E0B0E0B093730341
:1032F000A093720301E010E02AE230E049ED50E0D3
:1033000062E576E082E597E00E94541284FF02C0F5
:103310000C94052A84E48093630301E010E028E222
:1033200030E049ED50E062E576E082E597E00E940A
:10333000541280FF03C082E4809363038091720380
:1033400090917303892B09F064C30E943B0900919B
:103350005F03109160032091610330916203601B51
:10336000710B820B930B693E73408105910508F444
:1033700081C60E943B0960935F0370936003809352
:1033800061039093620302E010E020E130E046ED3B
:1033900050E06FE876E08FEA96E00E945412BC019C
:1033A000990F880B990B0E949E2E20E030E04AE78F
:1033B00054E40E94FB2D6B017C01C0925B03D09210
:1033C0005C03E0925D03F0925E032FE030E046ED97
:1033D00050E06FE876E08FEA96E00E945412BC015C
:1033E000990F880B990B0E949E2E20E030E04AE74F
:1033F00054E40E94FB2D609357037093580380930D
:10340000590390935A0322E130E046ED50E06FE813
:1034100076E08FEA96E00E945412BC01990F880B67
:10342000990B0E949E2E20E030E04AE754E40E946F
:10343000FB2D609353037093540380935503909333
:10344000560321E130E046ED50E06FE876E08FEA88
:1034500096E00E945412BC01990F880B990B0E94B0
:103460009E2E20E030E04AE754E40E94FB2D60935A
:103470004F0370935003809351039093520301E0E4
:1034800010E02EE030E046ED50E06FE876E08FEAA5
:1034900096E00E945412C29790934E0380934D037E
:1034A0002DE030E046ED50E06FE876E08FEA96E000
:1034B0000E945412C29790934C0380934B032CE0CC
:1034C00030E046ED50E06FE876E08FEA96E00E944B
:1034D0005412C29790934A03809349032BE030E043
:1034E00046ED50E06FE876E08FEA96E00E945412D5
:1034F000C297909348038093470324E830E04BED54
:1035000050E062E576E082E597E00E9454129093E5
:1035100046038093450302E010E026E430E04AEDE4
:1035200050E062E576E082E597E00E945412BC012B
:10353000990F880B990B0E949E2E20E030E04AE7FD
:1035400054E40E94FB2D2B013C0101E010E022E13C
:1035500030E049ED50E062E576E082E597E00E94D8
:103560005412BC01990F880B990B0E949E2E20E0EB
:1035700030E040E05FE30E94532F20E030E040E283
:1035800052E40E94892D4B015C0121E230E04AEDBA
:1035900050E062E576E082E597E00E945412988B55
:1035A0008F8723E030E048E250E06BE970E08091E3
:1035B00063030E94181080910001882331F090E08D
:1035C00080E00E94890B1092000188E196EC9093B4
:1035D0004D0480934C0410924F0410924E0497E0D7
:1035E0009093560465E0262E312C30923F042092B1
:1035F0003E04AAE0B0E0B0934104A093400411E07F
:103600001093570442E050E0C701B6010E948013B6
:1036100010935604EEE6F0E0F0933F04E0933E048E
:103620007DE2C72ED12CD0924104C09240046FEAB3
:1036300071E086E394E00E946014109356042EE13A
:1036400030E030933F0420933E04EFE3EE2EF12C64
:10365000F0924104E092400402E00093570460912C
:103660004D0370914E034AE050E086E394E00E94DF
:10367000661367EF86E394E00E94270768EB71E02A
:1036800086E394E00E94601437E03093560489EB9F
:1036900090E090933F0480933E04AAE0B0E0B093A2
:1036A0004104A09340041093570460915703709114
:1036B00058038091590390915A0342E050E00E94D0
:1036C000801310935604E2E2F1E0F0933F04E0939C
:1036D0003E04D0924104C09240046CEB71E086E35A
:1036E00094E00E9460141093560422ED30E0309371
:1036F0003F0420933E04F0924104E0924004009382
:10370000570460914B0370914C034AE050E086E30C
:1037100094E00E94661367EF86E394E00E94270717
:1037200068EB71E086E394E00E94601437E0309328
:10373000560430923F0420923E04FAEACF2ED12C58
:10374000D0924104C09240041093570460915303F7
:1037500070915403809155039091560342E050E0DC
:103760000E948013109356048EE690E090933F04DD
:1037700080933E04ADECB0E0B0934104A0934004CC
:103780006CEB71E086E394E00E94601410935604A1
:10379000EEE1F0E0F0933F04E0933E04AFEDEA2E5B
:1037A000F12CF0924104E0924004009357046091A0
:1037B000490370914A034AE050E086E394E00E9496
:1037C000661367EF86E394E00E94270768EB71E0D9
:1037D00086E394E00E946014F7E0F093560429EB2E
:1037E00030E030933F0420933E04D0924104C092D5
:1037F00040041093570460914F03709150038091DF
:1038000051039091520342E050E00E9480131093C4
:10381000560482E291E090933F0480933E04ADEC25
:10382000B0E0B0934104A09340046CEB71E086E3F8
:1038300094E00E94601410935604E2EDF0E0F093DF
:103840003F04E0933E04F0924104E0924004009370
:10385000570460914703709148034AE050E086E3C3
:1038600094E00E94661367EF86E394E00E942707C6
:1038700068EB71E086E394E00E94601410935604B4
:1038800030923F0420923E0424E630E0309341041D
:10389000209340040093570461EC71E086E394E0C8
:1038A0000E94601443E050E0C301B2010E94801303
:1038B00067EC71E086E394E00E9460144AE050E017
:1038C0006F85788986E394E00E94661363ED71E06A
:1038D00086E394E00E9460141093560430923F04F3
:1038E00020923E0488E790E0909341048093400446
:1038F0000093570468ED71E086E394E00E94601441
:1039000041E050E0C501B4010E94801367EF86E3F7
:1039100094E00E94270768EB71E086E394E00E9440
:10392000601480914503909146038F3F910511F4F7
:103930000C943B2A1093560430923F0420923E048C
:103940005CE8E52EF12CF0924104E09240040093F3
:10395000570460EE71E086E394E00E946014609189
:103960004503709146034AE050E086E394E00E94EC
:10397000661363ED71E086E394E00E946014209189
:103980004503309146032B30310514F00C94082A7E
:1039900088E196EC90934D0480934C0480E098EF7E
:1039A00090934F0480934E041093560430923F043A
:1039B00020923E04F0924104E092400460EE71E0F7
:1039C00086E394E00E946014609145037091460381
:1039D0004AE050E086E394E00E94661366EE71E0F0
:1039E00086E394E00E946014E12C48EFF42E00E19D
:1039F00010E02BEB30E04CE850E066E970E086E345
:103A000094E00E94550B68EC70E088EC90E00E9416
:103A1000E3098091720390917303019709F02AC31F
:103A20000E943B0900915F031091600320916103A4
:103A300030916203601B710B820B930B693E7340E4
:103A40008105910508F476C60E943B0960935F03E7
:103A500070936003809361039093620302E010E02F
:103A600029E230E044ED50E068E876E088EA96E04C
:103A70000E945412BC01990F880B990B0E949E2E34
:103A800029E030E048E45AE30E94532F20E030E080
:103A900040E85EE30E94892D6093410370934203E6
:103AA000809343039093440301E010E023E830E067
:103AB0004BED50E062E576E082E597E00E9454121B
:103AC00088979093400380933F0302E010E02AE040
:103AD00030E044ED50E068E876E088EA96E00E9445
:103AE000541290933E0380933D0326E430E04AED68
:103AF00050E062E576E082E597E00E945412BC0156
:103B0000990F880B990B0E949E2E20E030E04AE727
:103B100054E40E94FB2D2B013C0101E010E025E460
:103B200030E04AED50E062E576E082E597E00E9401
:103B30005412BC01990F880B990B0E949E2E20E015
:103B400030E040E251E40E94FB2D4B015C0122E198
:103B500030E049ED50E062E576E082E597E00E94D2
:103B60005412BC01990F880B990B0E949E2E20E0E5
:103B700030E040E05FE30E94532F20E030E040E27D
:103B800052E40E94892D6093390370933A03809325
:103B90003B0390933C0302E010E02DE030E044ED65
:103BA00050E068E876E088EA96E00E9454129C8B28
:103BB0008B8B01E010E029E030E044ED50E068E854
:103BC00076E088EA96E00E945412988B8F8702E094
:103BD00010E028E230E047ED50E068E876E088EA5F
:103BE00096E00E94541223E030E048E250E06BE996
:103BF00070E0809163030E94181080910001882377
:103C000009F410C190E080E00E94890B28E136ECB5
:103C100040EF50E070E060E080EA90E00E94CD0A62
:103C200028E136EC40E451E060E570E090E080E0AF
:103C30000E94B60928E136EC40E451E060EA70E009
:103C400090E080E00E94B60988E196EC90934D04E4
:103C500080934C0410924F0410924E04CC24C394D1
:103C6000C0925604F3EA2F2E312C30923F0420925A
:103C70003E0403E010E01093410400934004A2E0EE
:103C8000DA2ED09257046EEF71E086E394E00E9442
:103C90006014C092560484E091E090933F048093B6
:103CA0003E04B9E1EB2EF12CF0924104E092400485
:103CB000D092570467EF86E394E00E942707C092F2
:103CC000560410933F0400933E0410934104009364
:103CD0004004D092570465E072E086E394E00E94CD
:103CE0006014C0925604E4E6F0E0F0933F04E093E1
:103CF0003E04F0924104E0924004D092570467EFF2
:103D000086E394E00E942707C092560410933F0474
:103D100000933E0423E530E03093410420934004B7
:103D2000D09257046AE072E086E394E00E94601447
:103D3000C09256048FE890E090933F0480933E0435
:103D400082E8E82EF12CF0924104E0924004D092F7
:103D500057046FE072E086E394E00E946014C09222
:103D6000560430923F0420923E04A3E5B0E0B093A5
:103D70004104A0934004D092570461E172E086E3CD
:103D800094E00E946014C09256048CE191E09093FC
:103D90003F0480933E04F0924104E0924004D092AC
:103DA000570467E172E086E394E00E946014C092D9
:103DB000560410933F0400933E0430924104209235
:103DC0004004D092570469E172E086E394E00E94D7
:103DD0006014C0925604EFE8F0E0F0933F04E093E3
:103DE0003E048EEB90E09093410480934004D09287
:103DF000570467EF86E394E00E942707C0925604B9
:103E000030923F0420923E043092410420924004BC
:103E1000D09257046FE172E086E394E00E94601450
:103E2000109200014AE062E373E080913D039091BB
:103E30003E030E94E62A80913D0390913E03803527
:103E4000910514F00C94592A8FED93E090934D0452
:103E500080934C0410924F0410924E0411E0109382
:103E6000570427E030E049E150E064E071E082E38C
:103E700093E00E949F0E88E196EC90934D0480930E
:103E80004C0410924F0410924E041093560484E098
:103E900091E090933F0480933E0487E390E09093F9
:103EA00041048093400482E0809357044AE050E04C
:103EB0006B897C8986E394E00E94661365EB71E070
:103EC00086E394E00E9460144AE062E373E080912C
:103ED0003F03909140030E94E62A80913F03909116
:103EE00040038035910514F00C946B2A8FED93E01C
:103EF00090934D0480934C0410924F0410924E0402
:103F0000FF24F394F092570427E030E049E150E0B9
:103F100064E670E082E393E00E949F0E60914103AB
:103F200070914203809143039091440302E313E0B4
:103F300022E045E00E94C82A2FEF37E030934D047D
:103F400020934C0410924F0410924E04F0925704A8
:103F500027E030E049E650E06CE171E0C8010E94E2
:103F60009F0E22E045E0C301B2010E94C82A8FEFF4
:103F700097E090934D0480934C0410924F0410925C
:103F80004E04F092570427E030E049E650E06CE838
:103F900070E0C8010E949F0E88E196EC90934D045A
:103FA00080934C0410924F0410924E04F0925604E9
:103FB0008EE690E090933F0480933E0485E590E088
:103FC000909341048093400482E08093570441E041
:103FD00050E0C501B4010E948013609139037091D3
:103FE0003A0380913B0390913C0321E047E00E941B
:103FF000C82AAFEFB7E0B0934D04A0934C041092E1
:104000004F0410924E04F092570427E030E049EB41
:1040100050E06CE870E0C8010E949F0E8F8598897F
:104020000197069710F00C947D2AEFEFF7E0F093DC
:104030004D04E0934C0410924F0410924E0487E01C
:10404000809356048CED90E090933F0480933E045F
:1040500089EB90E09093410480934004F0925704E0
:104060004AE050E06F85788986E394E00E94661309
:104070000E94FA0A8091720390917303029709F0EB
:1040800059C30E943B0900915F0310916003209186
:10409000610330916203601B710B820B930B693ECD
:1040A00073408105910508F4CAC40E943B096093DE
:1040B0005F0370936003809361039093620302E057
:1040C00010E029E830E044ED50E068E876E088EA66
:1040D00096E00E945412BC01990F880B990B0E9424
:1040E0009E2E20E030E04AE75CE30E94532F6F876A
:1040F000788B898B9A8B2EE830E044ED50E068E8AD
:1041000076E088EA96E00E945412BC01990F880B71
:10411000990B0E949E2E20E030E04AE75CE30E946B
:10412000532F6B8B7C8B8D8B9E8B24E130E044ED89
:1041300050E068E876E088EA96E00E945412988F92
:104140008F8B2EE730E044ED50E068E876E088EAB7
:1041500096E00E945412BC01990F880B990B0E94A3
:104160009E2E20E030E543E456E40E94FB2D6B8F49
:104170007C8F8D8F9E8F2DE830E044ED50E068E815
:1041800076E088EA96E00E945412BC01990F880BF1
:10419000990B0E949E2E20E030E543E456E40E94F5
:1041A000FB2D6F8F78A389A39AA329ED30E044ED0E
:1041B00050E068E876E088EA96E00E945412BC017C
:1041C000990F880B990B0E949E2E20E030E040EA68
:1041D0005DE30E94532F20E030E048EC52E40E945F
:1041E000FB2D6BA37CA38DA39EA32AED30E044EDB1
:1041F00050E068E876E088EA96E00E945412BC013C
:10420000990F880B990B0E949E2E2AE037ED43EA06
:104210005DE30E94532F20E030E04AE754E40E941F
:10422000FB2D6FA378A789A79AA72FE730E044ED6D
:1042300050E068E876E088EA96E00E945412BC01FB
:10424000990F880B990B0E949E2E20E030E040ECE5
:104250005CE30E94532F23E333E948E853E40E94D0
:10426000892D2B013C0101E010E021E130E044ED1B
:1042700050E068E876E088EA96E00E945412BC01BB
:10428000990F880B990B0E949E2E20E030E040E4AD
:104290005FE30E94532F20E030E040E452E40E94AC
:1042A000892D4B015C0123E030E048E250E06BE9EE
:1042B00070E0809163030E941810809100018823B0
:1042C00009F426C190E080E00E94890B28E136ECD9
:1042D00040EF50E070E060E080EA90E00E94CD0A9C
:1042E00028E136EC40E451E060E570E090E080E0E9
:1042F0000E94B60928E136EC40E451E060EA70E043
:1043000090E080E00E94B60988E196EC90934D041D
:1043100080934C0410924F0410924E040093560464
:1043200063EA262E312C30923F0420923E0473E043
:10433000E72EF12CF0924104E092400412E0109339
:10434000570465E272E086E394E00E9460140093F3
:10435000560484E091E090933F0480933E0489E109
:1043600090E090934104809340041093570467EFCA
:1043700086E394E00E94270700935604F0923F04DE
:10438000E0923E04F0924104E092400410935704FE
:1043900062E372E086E394E00E94601400935604A6
:1043A00084E690E090933F0480933E0482E390E0A3
:1043B0009093410480934004109357046BE372E0A0
:1043C00086E394E00E94601400935604F0923F0448
:1043D000E0923E04A3E5B0E0B0934104A093400412
:1043E000109357046FE372E086E394E00E94601438
:1043F00000935604EBE7F0E0F0933F04E0933E04B3
:1044000082E890E090934104809340041093570415
:104410006DEB71E086E394E00E9460140093560413
:1044200030923F0420923E0423E530E03093410473
:10443000209340041093570467E472E086E394E00D
:104440000E94601400935604E1E3CE2EDD24D39441
:10445000D0923F04C0923E0489E690E090934104DC
:10446000809340041093570467EF86E394E00E9422
:10447000270700935604F0923F04E0923E043092E6
:10448000410420924004109357046FE472E086E3E5
:1044900094E00E946014009356048BE790E09093A0
:1044A0003F0480933E0482ED90E09093410480931A
:1044B0004004109357046DEB71E086E394E00E9492
:1044C00060140093560430923F0420923E043092D0
:1044D0004104209240041093570465E572E086E39E
:1044E00094E00E94601400935604D0923F04C0925E
:1044F0003E0489EB90E09093410480934004109334
:10450000570467EF86E394E00E94270710920001AA
:104510008E010F5F1F4F20E043E06F857889898906
:104520009A890E94C82AAFEFB7E0B0934D04A093D8
:104530004C0410924F0410924E04FF24F394F09216
:10454000570427E030E049E150E06FE570E0C80132
:104550000E949F0E38E1232E36EC332E30924D040C
:1045600020924C0410924F0410924E04F092560484
:104570004EE6C42ED12CD0923F04C0923E0485E07A
:1045800090E0909341048093400452E0E52EE09245
:10459000570450E040E06B897C898D899E890E9498
:1045A00080134AE0B8018F89988D0E94E62AEFEFC8
:1045B000F7E0F0934D04E0934C0410924F041092F6
:1045C0004E04F092570427E030E049E150E064E007
:1045D00071E0C8010E949F0E22E045E06B8D7C8D4A
:1045E0008D8D9E8D0E94C82A2FEF37E030934D04A9
:1045F00020934C0410924F0410924E04F0925704F2
:1046000027E030E049E650E06AE770E0C8010E9428
:104610009F0E30924D0420924C0410924F04109241
:104620004E04F0925604D0923F04C0923E0485E5B9
:1046300090E09093410480934004E092570442E05C
:1046400050E06F8D78A189A19AA10E94801322E089
:1046500045E06BA17CA18DA19EA10E94C82A8FEF8D
:1046600097E090934D0480934C0410924F04109265
:104670004E04F092570427E030E049EB50E06AE73F
:1046800070E0C8010E949F0E30924D0420924C04AD
:1046900010924F0410924E04F0925604D0923F04B0
:1046A000C0923E04A5EAB0E0B0934104A093400458
:1046B000E092570442E050E06FA178A589A59AA541
:1046C0000E94801321E043E0C301B2010E94C82A86
:1046D000EFEFF7E0F0934D04E0934C0410924F0499
:1046E00010924E04F092570427E030E049E650E083
:1046F00061E371E0C8010E949F0E21E043E0C50123
:10470000B4010E94C82A2FEF37E030934D04209364
:104710004C0410924F0410924E04F092570427E07C
:1047200030E049EB50E061E371E0C8010E949F0E68
:104730000E94FA0A8091720390917303039709F023
:104740007EC10E943B0900915F031091600320919C
:10475000610330916203601B710B820B930B693E06
:1047600073408105910508F4ACC40E943B09609335
:104770005F0370936003809361039093620302E090
:1047800010E026E430E04AED50E062E576E082E5B4
:1047900097E00E945412BC01990F880B990B0E945C
:1047A0009E2E20E030E04AE754E40E94FB2D2B01CE
:1047B0003C0101E010E025E430E04AED50E062E524
:1047C00076E082E597E00E945412BC01990F880BB5
:1047D000990B0E949E2E20E030E040E251E40E94BE
:1047E000FB2D4B015C0127E430E04AED50E062E52F
:1047F00076E082E597E00E9454128897988B8F8725
:1048000021E230E04AED50E062E576E082E597E0B3
:104810000E9454129C8B8B8B02E010E02CE430E061
:104820004AED50E062E576E082E597E00E9454129E
:10483000BC01990F880B990B0E949E2E20E030E05E
:1048400048EC52E40E94FB2D6F8B788F898F9A8FF2
:1048500029E430E04AED50E062E576E082E597E059
:104860000E945412BC01990F880B990B0E949E2E36
:104870002AE037ED43EA5BE30E94532F6B017C0192
:1048800023E030E048E250E06BE970E080916303A0
:104890000E94181080910001882331F090E080E0A0
:1048A0000E94890B1092000180EE97E090934D04D6
:1048B00080934C0410924F0410924E0411E0109318
:1048C000560423E0222E312C30923F0420923E04E5
:1048D00084E190E090934104809340041093570446
:1048E0006BE572E086E394E00E94601443E050E0E0
:1048F000C301B2010E94801361E672E086E394E096
:104900000E94601441E050E0C501B4010E94801390
:1049100066E672E086E394E00E9460141093560409
:1049200030923F0420923E048EE190E09093410447
:1049300080934004109357046BE672E086E394E0A2
:104940000E9460144AE050E06F85788986E394E025
:104950000E94661367EF86E394E00E94270768EBE6
:1049600071E086E394E00E94601410935604309244
:104970003F0420923E0488E290E0909341048093AB
:1049800040041093570467E772E086E394E00E94C6
:1049900060144AE050E06B897C8986E394E00E94D1
:1049A000661360E872E086E394E00E94601410935E
:1049B000560430923F0420923E0482E390E09093AC
:1049C0004104809340041093570464E872E086E346
:1049D00094E00E94601442E050E06F89788D898DE8
:1049E0009A8D0E9480136EE872E086E394E00E9444
:1049F00060141093560430923F0420923E04ACE3BE
:104A0000B0E0B0934104A09340041093570466E9CA
:104A100072E086E394E00E94601443E050E0C70136
:104A2000B6010E94801362EA72E086E394E00E947D
:104A3000601462E370E082E390E00E94E3098091F9
:104A4000720390917303049709F03BC30E943B09E2
:104A500000915F0310916003209161033091620324
:104A6000601B710B820B930B693E734081059105AE
:104A700008F482C30E943B0960935F037093600354
:104A8000809361039093620302E010E024EC30E035
:104A900048ED50E062E576E082E597E00E9454122E
:104AA000BC01990F880B990B0E949E2E20E030E0EC
:104AB00048EC52E40E94FB2D6B8B7C8B8D8B9E8B84
:104AC00027EC30E048ED50E062E576E082E597E0E3
:104AD0000E945412BC01990F880B990B0E949E2EC4
:104AE00020E030E040E251E40E94FB2D6B017C01AC
:104AF00028EC30E048ED50E062E576E082E597E0B2
:104B00000E945412BC01990F880B990B0E949E2E93
:104B100020E030E040E251E40E94FB2D6F8B788F63
:104B2000898F9A8F21EE30E048ED50E062E576E023
:104B300082E597E00E9454129C8F8B8F28E230E030
:104B400047ED50E068E876E088EA96E00E9454126B
:104B5000BC01990F880B990B0E949E2E20E030E03B
:104B600040E85DE30E94532F2B013C0130E020E040
:104B700044ED50E068E876E088EA96E00E9454123E
:104B8000BC01990F880B990B0E949E2E6F87788B22
:104B9000898B9A8B9B01AC01C301B2010E94532FF8
:104BA00023EE37EC48E151E40E94FB2D20E030E099
:104BB0004AE754E40E94FB2D4B015C0123E030E006
:104BC00048E250E06BE970E0809163030E941810A6
:104BD00080910001882309F46EC190E080E00E947A
:104BE000890B1092000128E136EC40EA50E070E0B9
:104BF00060E080EA90E00E94CD0A28E136EC40E4D3
:104C000051E060E570E090E080E00E94B60928E1A4
:104C100036EC40E451E060EA70E090E080E00E9411
:104C2000B609E8E1F6ECF0934D04E0934C041092E1
:104C30004F0410924E04332433943092560423E0F0
:104C400030E030933F0420933E043093410420939E
:104C5000400492E0292E2092570467EA72E086E32E
:104C600094E00E9460143092560408E710E010931C
:104C70003F0400933E048EE390E0909341048093C0
:104C800040043092570462EB72E086E394E00E94A5
:104C90006014A8E1B6ECB0934D04A0934C041092BC
:104CA0004F0410924E0430925604E3E0F0E0F0938B
:104CB0003F04E0933E0423E530E030934104209329
:104CC00040042092570468EB72E086E394E00E946F
:104CD00060143092560410933F0400933E048EE813
:104CE00090E090934104809340043092570462EB2B
:104CF00072E086E394E00E946014A8E1B6ECB09301
:104D00004D04A0934C0410924F0410924E04309224
:104D10005604E3EAF0E0F0933F04E0933E0423E01E
:104D200030E030934104209340042092570464EC17
:104D300072E086E394E00E9460143092560402E22E
:104D400011E010933F0400933E048EE390E09093B3
:104D5000410480934004209257046AEC72E086E399
:104D600094E00E946014A8E1B6ECB0934D04A093C7
:104D70004C0410924F0410924E0430925604E3EA11
:104D8000F0E0F0933F04E0933E0423E530E03093FD
:104D9000410420934004209257046CEC72E086E3B7
:104DA00094E00E9460143092560410933F040093E4
:104DB0003E048EE890E0909341048093400420925A
:104DC000570467ED72E086E394E00E946014A8E166
:104DD000B6ECB0934D04A0934C0410924F04109283
:104DE0004E0430925604E3E0F0E0F0933F04E09389
:104DF0003E0423EA30E030934104209340042092A3
:104E000057046AED72E086E394E00E9460143092E9
:104E100056048CE390E090933F0480933E04ADEC05
:104E2000B0E0B0934104A0934004209257046AEE8E
:104E300072E086E394E00E94601430925604E5EA42
:104E4000F0E0F0933F04E0933E042DEC30E030932B
:104E50004104209340042092570460EF72E086E3FF
:104E600094E00E9460143092560410933F04009323
:104E70003E048DEC90E09093410480934004209296
:104E8000570467EF72E086E394E00E94601430926A
:104E9000560410933F0400933E048FEA90E09093F1
:104EA000410480934004209257046AEF72E086E345
:104EB00094E00E94601420E030E0A901C701B6012F
:104EC0000E944E2F02E313E087FD3AC320E030E05A
:104ED00048EC52E4C701B6010E94F62D18160CF4F6
:104EE0002FC321E045E0C701B6010E94C82AAFEFF9
:104EF000B7E0B0934D04A0934C0410924F0410926D
:104F00004E0481E08093570427E030E049E150E00F
:104F100068E770E0C8010E949F0E02E313E021E001
:104F200043E06F89788D898D9A8D0E94C82A2FEF72
:104F300037E030934D0420934C0410924F041092AC
:104F40004E04FF24F394F092570427E030E049E642
:104F500050E068E770E0C8010E949F0E21E043E046
:104F60006B897C898D899E890E94C82A8FEF97E082
:104F700090934D0480934C0410924F0410924E0471
:104F8000F092570427E030E049E150E062E271E03E
:104F9000C8010E949F0EAB8DBC8DBD01BB0F880B5D
:104FA000990B0E949E2E20E044E00E94C82AEFEF59
:104FB000F7E0F0934D04E0934C0410924F041092EC
:104FC0004E04F092570427E030E049E650E062E2F8
:104FD00071E0C8010E949F0E20E043E0C301B201CE
:104FE0000E94C82A2FEF37E030934D0420934C04E1
:104FF00010924F0410924E0483E0E82EE092570482
:1050000021E030E048EC50E065E070E0C8010E942B
:105010009F0EF092560485EA90E090933F048093AF
:105020003E04ADECB0E0B0934104A093400482E0B4
:105030008093570420E044E06F85788989899A89B4
:105040000E94C82A21E030E04DEC50E063E770E0B8
:10505000C8010E949F0EEFEFF7E0F0934D04E0933C
:105060004C0410924F0410924E04E092570420E03A
:1050700043E0C501B4010E94C82A21E030E048ECB9
:1050800050E066EE70E0C8010E949F0E2FE73AE6FE
:105090004CE35FE3C501B4010E94FB2D20E043E037
:1050A0000E94C82A21E030E04AEA50E066EE70E053
:1050B000C8010E949F0E70E060E08EE391E00E94C4
:1050C000E30980917203909173038436910509F08E
:1050D00053C00E943B0900915F031091600320912F
:1050E000610330916203601B710B820B930B693E6D
:1050F00073408105910508F49AC00E943B096093B2
:105100005F0370936003809361039093620323E0D5
:1051100030E048E250E06BE970E0809163030E9468
:10512000181080910001882331F08FE190E00E94F7
:10513000890B1092000120EE37E030934D0420934C
:105140004C0410924F0410924E0481E08093560458
:1051500023E030E030933F0420933E04ACE3B0E022
:10516000B0934104A09340048093570461E073E03E
:1051700086E394E00E94601480917203909173031F
:105180008536910509F053C00E943B0900915F03E9
:10519000109160032091610330916203601B710BD9
:1051A000820B930B693E73408105910508F49AC008
:1051B0000E943B0960935F037093600380936103D7
:1051C0009093620323E030E048E250E06BE970E046
:1051D000809163030E94181080910001882331F0B0
:1051E0008FE190E00E94890B10920001E0EEF7E061
:1051F000F0934D04E0934C0410924F0410924E042F
:1052000081E08093560423E030E030933F04209304
:105210003E042CE330E0309341042093400480931B
:1052200057046CE073E086E394E00E946014809180
:10523000720390917303883C910509F053C00E945A
:105240003B0900915F03109160032091610330914D
:105250006203601B710B820B930B693E73408105E7
:10526000910508F49AC00E943B0960935F03709314
:105270006003809361039093620323E030E048E28F
:1052800050E06BE970E0809163030E9418108091F8
:105290000001882331F080EE9FEF0E94890B10926D
:1052A000000180EE97E090934D0480934C0410929F
:1052B0004F0410924E0481E08093560423E030E0C6
:1052C00030933F0420933E04ACE3B0E0B09341043C
:1052D000A09340048093570460E173E086E394E078
:1052E0000E9460148091720390917303893C910530
:1052F00009F053C00E943B0900915F0310916003C5
:105300002091610330916203601B710B820B930B40
:10531000693E73408105910508F43FC00E943B0936
:1053200060935F03709360038093610390936203C3
:1053300023E030E048E250E06BE970E080916303E5
:105340000E94181080910001882331F080EE9FEFB9
:105350000E94890B10920001E0EEF7E0F0934D04FB
:10536000E0934C0410924F0410924E0481E080931D
:10537000560423E030E030933F0420933E042CE3B6
:1053800030E03093410420934004809357046BE154
:1053900073E086E394E00E94601480E090E0892B43
:1053A00011F40C9449180E949807882311F40C9466
:1053B00049180E9400000C9449181092730310922F
:1053C00072030C947A192130310569F48536910500
:1053D00011F00C947219E4E6F0E0F0937303E0939B
:1053E00072030C947A192230310511F00C947A1959
:1053F000893C910511F00C94721928EC30E030933F
:105400007303209372030C947A198EE40C948B1915
:1054100049EB429FC001439F900D112464E670E068
:105420000E94C52F6B012A31310584F480E098EF8A
:105430000E942C0BE12C38EFF32E0DE010E09601CA
:105440004EE850E06DE770E00C94FF1C2932310506
:105450004CF480E29DEF0E942C0B20E2E22E2DEF17
:10546000F22EEBCF80EE97E00E942C0B90EEE92E0F
:1054700097E0F92EE2CFA8E1B6ECB0934D04A093EB
:105480004C0410924F0410924E0410935604309224
:105490003F0420923E048CE890E090934104809376
:1054A00040046FEE71E086E394E00E9460140C9477
:1054B000031D8E36910524F480EE93E00C94261F94
:1054C0008337910524F480E29DEF0C94261F80E041
:1054D00098EF0C94261F8837910524F480EE93E012
:1054E0000C94781F8639910524F480E29DEF0C948A
:1054F000781F80E098EF0C94781F2FEF37E03093FF
:105500004D0420934C0410924F0410924E0487E0F7
:10551000809356048CED90E090933F0480933E047A
:1055200089EB90E09093410480934004F0925704FB
:105530006FEF72E086E394E00E9460140C943820D0
:1055400021E044E0C701B6010E94C82AEFEFF7E06E
:10555000F0934D04E0934C0410924F0410924E04CB
:1055600081E08093570427E030E049E150E068E7AC
:1055700070E08DEF92E0CFCC0E943B09609367030F
:10558000709368038093690390936A030C947A196B
:10559000EF920F931F93CF93DF93E80134E047FD21
:1055A00034E1042E000C550B57FF03C05195419573
:1055B0005109E32E022F242FAE010E940B2BCE01A6
:1055C000DF91CF911F910F91EF900895BB274A3043
:1055D00031F4992322F4BDE2909581959F4F0C946C
:1055E000F22ABB27FB015527AA27880F991FAA1F5C
:1055F000A41710F0A41B83955051B9F7A05DAA33EE
:1056000008F0A95DA193009779F7B111B1931192B8
:10561000CB010C94422DA9E0B0E0E1E1FBE20C9457
:10562000582D6A01F22EB02E102FFBE3AF2EA016DC
:1056300008F41BE31F5F012F27E0AE014F5F5F4FB0
:105640000E946A2CBC018981982F9970913009F4CD
:105650003FC09BE2E1FC04C09E2D9170E0FC3AC08B
:105660005E2D5071E82FE87083FF46C084E09111F1
:1056700001C083E0EF2DE81B8F1508F0E0E0D601B4
:105680008E2F20E2552351F1992329F0D6019C93C6
:10569000C60101966C0196012D5F3F4FE2FE24C0CA
:1056A0008EE4D6018C9391E411969C9311971296F7
:1056B0008C93D9018E2F90E281111BC0E20FF32F42
:1056C000F11D10828EEF9FEF2996ECE00C94742D63
:1056D0009DE2C6CF90E2C4CF2D9381508111FCCFC3
:1056E000CE0ED11CE0E0D0CF8EE6D6018C9391E6B1
:1056F000DBCF9D938150E0CF482F447082FF3DC0A7
:1057000084E0911101C083E08F1510F4EF2DE81BA8
:10571000D6018E2F20E2552309F1992329F0D601D5
:105720009C93C60101966C0196012D5F3F4FE2FEEE
:105730001BC089E4D6018C938EE411968C9311974B
:1057400086E412968C93D9018E2F90E2882309F477
:10575000B5CF9D938150FACF2D9381508111FCCF0D
:10576000CE0ED11CE0E0D9CF89E6D6018C938EE62F
:1057700011968C93119786E6E4CF9B0177FF02C0C8
:1057800030E020E0A1E0B0E0911102C0B0E0A0E084
:10579000F9013196AE0FBF1F8B2C912CBB2009F461
:1057A00061C05401EFEFAE1ABE0AAA0DBB1DFA1676
:1057B0001B0619F014F04F2D4A1B511188C0E3FC51
:1057C00059C07601A42FB0E2A1114FC0C40ED11C64
:1057D000992309F45BC040E0D6011196F60190834D
:1057E0006D01552309F448C0012F060F9A81582FE7
:1057F000507184FF03C0913309F4015010160CF06E
:1058000047C0093008F008E0EEE2FE2E5B01A01A66
:10581000B10885019194819491082F3F320729F4B2
:10582000D601FC92F60131966F016217730794F16D
:10583000021713077CF5DB01A21BB30BAA24A39468
:10584000B12CAC0EBD1EAA0DBB1D11968C91215022
:105850003109D601119628153905F4F0F601808337
:105860006D01DBCFB12CA12CA0CFF701B1937F014B
:10587000A150AACF9111B0CFD601942F50E302C00E
:105880005D9391509111FCCFC40ED11C40E0ACCF80
:1058900001E0BACF80E3DBCF6217730731F49633B0
:1058A00088F4953311F4552369F0F6018083FD01E6
:1058B000842F90E2811108C0A40FB11D1C9290E0CA
:1058C00080E002CF81E3F1CF91938150F3CF91112A
:1058D00083CF8ACF283008F027E03327DA01990FE9
:1058E000311D87FD916000966105710539F43260C4
:1058F0002E5F3D9330E32A95E1F708959F3F30F006
:1059000080387105610509F03C5F3C5F3D93913043
:1059100008F08068911DDF93CF931F930F93FF9240
:10592000EF92192F987F9695E92F96959695E90F06
:10593000FF27EE53FF4F99273327EE24FF24A701BB
:10594000E70105900894079428F4360FE71EF81E27
:10595000491F511D660F771F881F991F0694A1F7D5
:105960000590079428F4E70EF81E491F561FC11D25
:10597000770F881F991F661F0694A1F7059007945B
:1059800028F4F80E491F561FC71FD11D880F991FF5
:10599000661F771F0694A1F70590079420F4490F1E
:1059A000561FC71FD81F990F661F771F881F0694A1
:1059B000A9F784911095177041F0D695C795579522
:1059C0004795F794E7941A95C1F7E8E6F0E06894F4
:1059D0001590159135916591959105907FE273959C
:1059E000E118F10A430B560BC90BD009C0F7E10CC3
:1059F000F11E431F561FC91FD01D7EF4703311F4D2
:105A00008A95E6CFE894015030F0080F0AF4002799
:105A1000021708F4202F2395022F7A3328F079E318
:105A20007D932A95E9F710C07D932A9589F606940F
:105A300097956795379517951794E118F10A430BD9
:105A4000560BC90BD00998F023957E9173957A3344
:105A500008F070E37C932013B8F77E9170617D931A
:105A600030F0839571E37D9370E32A95E1F711247B
:105A7000EF90FF900F911F91CF91DF91992787FDB4
:105A800090950895DC01FC01672F71917723E1F770
:105A9000329704C07C916D9370836291AE17BF07FB
:105AA000C8F308952F923F924F925F926F927F9228
:105AB0008F929F92AF92BF92CF92DF92EF92FF921E
:105AC0000F931F93CF93DF93CDB7DEB7CA1BDB0BCA
:105AD0000FB6F894DEBF0FBECDBF09942A8839886F
